:100000000C9475000C949D000C949D000C94DA02E5
:100010000C94DA020C94DA020C949D000C949D006E
:100020000C949D000C949D000C949D000C949F00DA
:100030000C949D000C949D000C949D000C949D00CC
:100040000C941D060C949D000C949D000C949D0036
:100050000C949D000C949D000C949D000C949D00AC
:100060000C949D000C949D00D7050D060D060D0601
:10007000C5050D060D060D060D060D06E5050D065A
:1000800001060D06C2050D06F40501060000000874
:10009000000201000003040700000000000000004F
:1000A000010204081020408001020408102001020F
:1000B00004081020040404040404040402020202DC
:1000C00002020303030303030000000023002600D1
:1000D000290000000000250028002B00000000007F
:1000E000240027002A009105A00511241FBECFEF90
:1000F000D8E0DEBFCDBF11E0A0E0B1E0E0E6F1E185
:1001000002C005900D92A631B107D9F721E0A6E112
:10011000B1E001C01D92A63BB207E1F710E0C8EEC6
:10012000D0E004C02297FE010E948B08C63ED10792
:10013000C9F70E94F0070C94A3080C9400001F92CA
:100140000F920FB60F9211242F933F934F935F930B
:100150006F937F938F939F93AF93BF93EF93FF938F
:100160008091170187FF05C01092850010928400CE
:100170001AC020911701332727FD30958091160171
:1001800090E0281739077CF480911701992787FDA3
:100190009095FC01EE0FFF1FE80FF91FE85EFE4F80
:1001A000808186FD15C0809117018F5F80931701B4
:1001B00020911701332727FD30958091160190E09B
:1001C00028173907BCF4809117018C305CF112C0FC
:1001D00080911701992787FD9095FC01EE0FFF1F75
:1001E000E80FF91FE85EFE4F808160E08F730E9488
:1001F000B907D9CF8091840090918500049680340E
:100200009C4918F480E49CE905C080918400909199
:100210008500049690938900809388008FEF8093E7
:10022000170138C02091840030918500809117011A
:10023000992787FD9095FC01EE0FFF1FE80FF91F2E
:10024000E85EFE4F81819281820F931F9093890017
:100250008093880080911701992787FD9095FC0174
:10026000EE0FFF1FE80FF91FE85EFE4F808186FF4B
:1002700011C080911701992787FD9095FC01EE0F21
:10028000FF1FE80FF91FE85EFE4F808161E08F736A
:100290000E94B907FF91EF91BF91AF919F918F910C
:1002A0007F916F915F914F913F912F910F900FBE72
:1002B0000F901F901895209116012C30A0F431E07A
:1002C000320F30931601FC012083822F90E0FC0155
:1002D000EE0FFF1FE80FF91FE85EFE4F88EB9BE073
:1002E0009283818308952FEFFC0120830895DF928C
:1002F000EF92FF920F931F93CF93DF93EC01D62ED3
:100300007A01890188818C3008F066C061E08D2D0A
:100310000E9480078881A82FB0E0FD01EE0FFF1F2B
:10032000EA0FFB1FE85EFE4F2D2D2F739081907C0E
:10033000922B908360E272E06E197F0977FF02C012
:100340006D5F7F4F7595679575956795698340E6F5
:1003500059E0401B510B57FF02C04D5F5F4F559551
:100360004795559547954A836CE00E9428089CE084
:10037000899FB001112420E030E0A901460F571FEA
:10038000FA01EE0FFF1FE40FF51FE85EFE4F9081AC
:1003900096FD16C02F5F3F4F2C30310571F781114C
:1003A0000FC01092800082E080938100109285003F
:1003B00010928400B19A80916F00826080936F00E8
:1003C000888190E0FC01EE0FFF1FE80FF91FE85E47
:1003D000FE4F8081806480838881DF91CF911F915F
:1003E0000F91FF90EF90DF90089520917E01309162
:1003F0007F0128173907B9F490913C0180913D01A4
:10040000981789F0E0913C01F0E0E25CFE4F8081BA
:1004100020913C0130E02F5F3F4F2F733327209313
:100420003C0190E008958FEF9FEF08951F93CF93C5
:10043000DF93DC015C968D919C915D97009749F468
:1004400081E090E013969C938E93129780E090E069
:100450003BC05196ED91FC91529750962C9150973C
:10046000322F30951FB75E964C915E9741FB7727F0
:1004700070F941FD6095F8944081772311F0422B8B
:1004800001C043234083EC012197F1F748E05081FC
:1004900060FF02C0522B01C053235083EC0121970F
:1004A000F1F76695415099F78081772311F0832306
:1004B00001C0822B80831FBF5C968D919C915D97BC
:1004C0000197F1F781E090E0DF91CF911F910895BE
:1004D000089520917E0130917F012817390781F41A
:1004E00090913C0180913D01981751F0E0913C01C1
:1004F000F0E0E25CFE4F8081992787FD909508959A
:100500008FEF9FEF089520917E0130917F01281792
:10051000390771F480913D0120913C0190E0805CAD
:100520009F4F821B910960E470E00E943408089597
:1005300080E090E00895E0917E01F0917F01E8175E
:10054000F90769F4A389B4899C91858980958923E9
:100550008C9310927F0110927E0181E0089580E0DB
:100560000895CF93DF93EC018A8D9B8D892BF1F059
:1005700080917E0190917F018C179D07B9F00097C3
:1005800011F00E949B028E8D8E7F8E8F10923D0106
:1005900010923C01D0937F01C0937E01EB89FC89CE
:1005A00080819D89892B808381E001C080E0DF917B
:1005B000CF9108951F920F920FB60F9211242F938F
:1005C0003F934F935F936F937F938F939F93AF93DB
:1005D000BF93EF93FF93E0917E01F0917F013097FD
:1005E00009F451C0868DA685B785958581FF04C025
:1005F0008C91892329F447C08C91892309F043C049
:10060000A389B4899C918589809589238C93868957
:1006100097890197F1F7208D318DA685B78575856E
:1006200058E040E0C9010197F1F7842F90E09595DB
:100630008795482F6C91672309F04068515091F7D6
:10064000868D81FD409580913D0190E001968F73EC
:10065000992720913C01281749F0A0913D01B0E075
:10066000A25CBE4F4C9380933D0103C0868D816098
:10067000868F828D938D0197F1F7A389B4898C9130
:100680009589892B8C93FF91EF91BF91AF919F91A9
:100690008F917F916F915F914F913F912F910F902B
:1006A0000FBE0F901F90189529E031E0FC013183B7
:1006B00020830C949B021F93CF93DF93EC01162FA2
:1006C0006E8D6695617081E06827812F0E94B90761
:1006D00061E0812F0E948007812F90E0FC01E056AD
:1006E000FF4FE491E88BFC01EC54FF4FE491F0E004
:1006F000EE0FFF1FEE52FF4F859194919A8B898BDD
:10070000DF91CF911F9108951F93CF93DF93EC0159
:10071000162F60E0812F0E9480078E8D81FD04C01E
:1007200061E0812F0E94B9071C87812F90E0FC01B6
:10073000E056FF4FE491ED87FC01EC54FF4FE4914C
:10074000F0E0EE0FFF1FE853FF4F859194919F87D4
:100750008E87DF91CF911F910895FF920F931F9382
:10076000CF93DF93EC01F62E522F1B821A8208EEF4
:1007700013E020E030E00C831D832E833F8389E06B
:1007800091E0998388831F8A1E8A198E188E1B8E8A
:100790001A8E1D8E1C8E8E8D8E7F50FB81F98E8F52
:1007A000642FCE010E945B036F2DCE01DF91CF91AC
:1007B0001F910F91FF900C948403CF93DF93EC0172
:1007C0009A01AB011B8E1A8E198E188E1F8A1E8AF3
:1007D00060E079E08DE390E00E946A08C90124306E
:1007E000310520F0B9016350710902C061E070E089
:1007F0007D8F6C8FEC85E63108F068C0B901769585
:1008000067956431710518F06351710902C061E0A8
:1008100070E07F8B6E8B069718F0C901059702C0B8
:1008200081E090E0998F888FC901880F991F820F0E
:10083000931F96958795969587958D30910510F025
:100840000C9702C081E090E09B8F8A8F2091680016
:10085000E83050F091E0EE3008F490E081E001C023
:10086000880F9A95EAF701C084E0822B8093680094
:100870002C85283038F02E3040F0263148F48CE6B4
:1008800090E008C08DE690E005C08BE690E002C0E5
:1008900080E090E09C8B8B8B283030F481E001C0AD
:1008A000880F2A95EAF70DC0822F90E02E3010F4C1
:1008B000089701C00E9791E001C0990F8A95EAF759
:1008C000892F8D8B8C8D9D8D0197F1F7CE01DF9156
:1008D000CF910C94B10220E639E048EE53E069E094
:1008E00070E08AEA91E00E94770120E639E048EE64
:1008F00053E06AE070E087EA91E00E94770161E0EE
:1009000087E00E94800761E088E00E94800761E044
:100910008EE00E94800761E08FE00E94800761E026
:100920008BE00E94800740E855E260E070E088E8D4
:1009300091E00C94DD03CF93C62F882389F060E00B
:1009400087E00E94B90760E088E00E94B90760E094
:1009500070E083E00E94F8061092830110928201F9
:10096000CC2389F060E08EE00E94B90760E08FE060
:100970000E94B90760E070E086E00E94F8061092DD
:1009800081011092800168EC70E080E090E0CF91EE
:100990000C948A06CF93DF93EC011816190664F4C1
:1009A000809182019091830197FD08C061E087E00A
:1009B0000E94B90760E015C0009739F460E081E05B
:1009C0000E949B0480E090E01EC080918201909183
:1009D00083011816190694F360E087E00E94B907B6
:1009E00061E088E00E94B907D7FF03C0D195C195A7
:1009F000D109C436D10514F4C4E6D0E0BE0183E0C9
:100A00000E94F806CE01DF91CF910895CF93DF9336
:100A1000EC01181619068CF48091800190918101E7
:100A200097FD06C061E08EE00E94B90760E013C048
:100A300061E080E00E949B0424C00097A9F08091AF
:100A40008001909181011816190694F360E08EE000
:100A50000E94B90761E08FE00E94B907D7FF14C078
:100A6000D195C195D10910C060E08EE00E94B90710
:100A700060E08FE00E94B9076FEF70E086E00E94AF
:100A8000F80680E090E00AC0C436D10514F4C4E64C
:100A9000D0E0BE0186E00E94F806CE01DF91CF9142
:100AA0000895CF93DF93181619061CF48C599F4FA5
:100AB00007C0009719F08456910902C080E090E0C9
:100AC000EC01C61BD70B860F971F0E94CA04909398
:100AD000830180938201CE010E94060590938101DB
:100AE00080938001DF91CF910895CF93DF93C9EC7C
:100AF000D0E060E08BE00E94B90788EE93E00E94AE
:100B0000B20661E08BE00E94B90788EE93E00E9494
:100B1000B206219771F760E08BE0DF91CF910C94E2
:100B2000B9078AEA91E00E945B0187EA91E00E949E
:100B30005B0120E041E060E088E891E00C94AD03C7
:100B400088E891E00C94540388E891E00E948302C5
:100B5000892B31F088E891E00E94F501809304012F
:100B600080910401992787FD9095A92FB92FFC0149
:100B7000E254F109E231F10508F04FC0EC5CFF4F9F
:100B80000C9489080E94750548C080918601909157
:100B9000870197FF09C061E081E00E949B041092E9
:100BA00087011092860139C082E390E009C08091EC
:100BB000860190918701181619066CF38EEC9FEF51
:100BC000909387018093860128C080918401909141
:100BD0008501181619061CF08BEF9FEF0DC01092BF
:100BE00085011092840119C0809184019091850142
:100BF00097FDF5CF85E090E0909385018093840187
:100C00000CC01092870110928601109285011092FB
:100C1000840161E081E00E949B04609184017091F5
:100C2000850180918601909187010E9451056AE0BB
:100C300070E080E090E00C948A061F920F920FB64D
:100C40000F9211242F933F938F939F93AF93BF9352
:100C50008091AE019091AF01A091B001B091B1012E
:100C60003091AD0123E0230F2D3720F40196A11D13
:100C7000B11D05C026E8230F0296A11DB11D2093CA
:100C8000AD018093AE019093AF01A093B001B093FA
:100C9000B1018091B2019091B301A091B401B091E2
:100CA000B5010196A11DB11D8093B2019093B301CE
:100CB000A093B401B093B501BF91AF919F918F9173
:100CC0003F912F910F900FBE0F901F9018953FB737
:100CD000F8948091B2019091B301A091B401B091C8
:100CE000B50126B5A89B05C02F3F19F00196A11D9F
:100CF000B11D3FBF6627782F892F9A2F620F711D74
:100D0000811D911D42E0660F771F881F991F4A952C
:100D1000D1F70895CF92DF92EF92FF92CF93DF93B6
:100D20006B017C010E946706EB01C114D104E10450
:100D3000F10489F00E9427080E9467066C1B7D0B56
:100D4000683E734090F381E0C81AD108E108F108C9
:100D5000C851DC4FEACFDF91CF91FF90EF90DF9049
:100D6000CF9008958230910538F0880F991F880F31
:100D7000991F05970197F1F70895789484B58260DB
:100D800084BD84B5816084BD85B5826085BD85B52F
:100D9000816085BDEEE6F0E0808181608083E1E8DE
:100DA000F0E0108280818260808380818160808316
:100DB000E0E8F0E0808181608083E1EBF0E0808119
:100DC00084608083E0EBF0E0808181608083EAE7EB
:100DD000F0E0808184608083808182608083808174
:100DE000816080838081806880831092C100089533
:100DF0001F93CF93DF93182FEB0161E00E948007D0
:100E0000209711F460E004C0CF3FD10539F461E0D0
:100E1000812FDF91CF911F910C94B907E12FF0E062
:100E2000E457FF4FE491E330F9F048F4E130B9F0D2
:100E3000E230A1F584B5806284BDC8BD34C0E7301E
:100E4000E9F0E83019F1E43049F5809180008062E2
:100E500080938000D0938B00C0938A0024C084B517
:100E6000806884BDC7BD1FC080918000806880936A
:100E70008000D0938900C093880015C08091B00095
:100E800080688093B000C093B3000DC08091B00023
:100E900080628093B000C093B40005C0C038D10513
:100EA0000CF0B5CFAFCFDF91CF911F910895833074
:100EB00081F028F4813099F08230A1F008958730D4
:100EC000A9F08830B9F08430D1F4809180008F7D12
:100ED00003C0809180008F7780938000089584B54F
:100EE0008F7702C084B58F7D84BD08958091B00056
:100EF0008F7703C08091B0008F7D8093B0000895FC
:100F0000CF93DF9390E0FC01E056FF4F2491FC016A
:100F1000EC54FF4F8491882349F190E0880F991F8A
:100F2000FC01E452FF4FA591B4918E529F4FFC01FA
:100F3000C591D4919FB7611108C0F8948C91209508
:100F400082238C93888182230AC0623051F4F89402
:100F50008C91322F309583238C938881822B8883C8
:100F600004C0F8948C91822B8C939FBFDF91CF911A
:100F700008950F931F93CF93DF931F92CDB7DEB7E2
:100F8000282F30E0F901E457FF4F8491F901E05632
:100F9000FF4F1491F901EC54FF4F04910023C9F065
:100FA000882321F069830E9457076981E02FF0E0D0
:100FB000EE0FFF1FEE52FF4FA591B4919FB7F8942B
:100FC0008C91611103C01095812301C0812B8C93FA
:100FD0009FBF0F90DF91CF911F910F9108950895BA
:100FE0000E94BD060E94EF070E946B04C0E0D0E0A3
:100FF0000E94A4052097E1F30E940000F9CFCF9250
:10100000DF92EF92FF920F931F93CF93DF937C01B8
:101010006A01EB0100E010E00C151D0571F069910B
:10102000D701ED91FC910190F081E02DC701099568
:10103000892B19F00F5F1F4FEFCFC801DF91CF91C0
:101040001F910F91FF90EF90DF90CF90089508953A
:10105000991B79E004C0991F961708F0961B881F0A
:101060007A95C9F78095089597FB072E16F400949A
:1010700007D077FD09D00E948F0807FC05D03EF409
:10108000909581959F4F0895709561957F4F089534
:10109000A1E21A2EAA1BBB1BFD010DC0AA1FBB1F7C
:1010A000EE1FFF1FA217B307E407F50720F0A21BEE
:1010B000B30BE40BF50B661F771F881F991F1A945B
:1010C00069F760957095809590959B01AC01BD0185
:1010D000CF010895052E97FB1EF400940E9481080D
:1010E00057FD07D00E94480807FC03D04EF40C942B
:1010F000810850954095309521953F4F4F4F5F4F58
:10110000089590958095709561957F4F8F4F9F4F73
:101110000895EE0FFF1F0590F491E02D0994AA1B8E
:10112000BB1B51E107C0AA1FBB1FA617B70710F0D2
:10113000A61BB70B881F991F5A95A9F78095909504
:10114000BC01CD01089510E0C8EED0E004C0FE015E
:101150000E948B082296CA3ED107C9F7F894FFCFA8
:10116000010000004E000000001602FF078302F598
:06117000016902680200A3
:00000001FF
