:100000000C945D000C9485000C9485000C94850084
:100010000C9485000C9485000C9485000C9485004C
:100020000C9485000C9485000C9485000C9487003A
:100030000C9485000C9485000C9485000C9485002C
:100040000C940E020C9485000C9485000C94850091
:100050000C9485000C9485000C9485000C9485000C
:100060000C9485000C94850000000008000201003B
:100070000003040700000000000000000102040863
:100080001020408001020408102001020408102002
:10009000040404040404040402020202020203032E
:1000A0000303030300000000250028002B000000CC
:1000B0000000240027002A00060211241FBECFEFF3
:1000C000D8E0DEBFCDBF11E0A0E0B1E0EEE9F6E0A0
:1000D00002C005900D92A430B107D9F721E0A4E049
:1000E000B1E001C01D92A933B207E1F710E0CAEBFD
:1000F000D0E004C02297FE010E944903C83BD1070B
:10010000C9F70E942C030C944D030C9400001F921D
:100110000F920FB60F9211242F933F934F935F933B
:100120006F937F938F939F93AF93BF93EF93FF93BF
:100130008091050187FF05C0109285001092840010
:100140001AC020910501332727FD309580910401C5
:1001500090E0281739077CF480910501992787FDE5
:100160009095FC01EE0FFF1FE80FF91FEA5FFE4FAD
:10017000808186FD15C0809105018F5F8093050108
:1001800020910501332727FD30958091040190E0EF
:1001900028173907BCF4809105018C305CF112C03E
:1001A00080910501992787FD9095FC01EE0FFF1FB7
:1001B000E80FF91FEA5FFE4F808160E08F730E94B5
:1001C000F502D9CF80918400909185000496803407
:1001D0009C4918F480E49CE905C0809184009091CA
:1001E0008500049690938900809388008FEF809318
:1001F000050138C02091840030918500809105016F
:10020000992787FD9095FC01EE0FFF1FE80FF91F5E
:10021000EA5FFE4F81819281820F931F9093890044
:100220008093880080910501992787FD9095FC01B6
:10023000EE0FFF1FE80FF91FEA5FFE4F808186FF78
:1002400011C080910501992787FD9095FC01EE0F63
:10025000FF1FE80FF91FEA5FFE4F808161E08F7397
:100260000E94F502FF91EF91BF91AF919F918F9105
:100270007F916F915F914F913F912F910F900FBEA2
:100280000F901F901895209104012C30A0F431E0BC
:10029000320F30930401FC012083822F90E0FC0197
:1002A000EE0FFF1FE80FF91FEA5FFE4F88EB9BE0A0
:1002B0009283818308952FEFFC0120830895DF92BC
:1002C000EF92FF920F931F93CF93DF93EC01D62E03
:1002D0007A01890188818C3008F066C061E08D2D3B
:1002E0000E94BC028881A82FB0E0FD01EE0FFF1F25
:1002F000EA0FFB1FEA5FFE4F2D2D2F739081907C3C
:10030000922B908360E272E06E197F0977FF02C042
:100310006D5F7F4F7595679575956795698340E625
:1003200059E0401B510B57FF02C04D5F5F4F559581
:100330004795559547954A836CE00E943B039CE0A6
:10034000899FB001112420E030E0A901460F571F1A
:10035000FA01EE0FFF1FE40FF51FEA5FFE4F9081D9
:1003600096FD16C02F5F3F4F2C30310571F781117C
:100370000FC01092800082E080938100109285006F
:1003800010928400B19A80916F00826080936F0018
:10039000888190E0FC01EE0FFF1FE80FF91FEA5F74
:1003A000FE4F8081806480838881DF91CF911F918F
:1003B0000F91FF90EF90DF90089520E639E048EE2E
:1003C00053E069E070E08DE291E00E945F0120E679
:1003D00039E048EE53E06AE070E08AE291E00E9482
:1003E0005F0161E087E00E94BC0261E088E00E945A
:1003F000BC0261E08EE00E94BC0261E08FE00E94DE
:10040000BC0261E08BE00C94BC0208958DE291E0A7
:100410000E9443018AE291E00C9443011F920F92E3
:100420000FB60F9211242F933F938F939F93AF9307
:10043000BF938091310190913201A0913301B0912D
:1004400034013091300123E0230F2D3720F4019641
:10045000A11DB11D05C026E8230F0296A11DB11DE7
:10046000209330018093310190933201A0933301A6
:10047000B09334018091350190913601A0913701FC
:10048000B09138010196A11DB11D80933501909363
:100490003601A0933701B0933801BF91AF919F917E
:1004A0008F913F912F910F900FBE0F901F90189535
:1004B000789484B5826084BD84B5816084BD85B53F
:1004C000826085BD85B5816085BDEEE6F0E0808106
:1004D00081608083E1E8F0E0108280818260808327
:1004E000808181608083E0E8F0E0808181608083AA
:1004F000E1EBF0E0808184608083E0EBF0E08081DC
:1005000081608083EAE7F0E080818460808380817D
:100510008260808380818160808380818068808325
:100520001092C1000895833081F028F4813099F051
:100530008230A1F008958730A9F08830B9F0843076
:10054000D1F4809180008F7D03C0809180008F77EF
:1005500080938000089584B58F7702C084B58F7D25
:1005600084BD08958091B0008F7703C08091B00062
:100570008F7D8093B0000895CF93DF9390E0FC01CE
:10058000E458FF4F2491FC01E057FF4F84918823EA
:1005900049F190E0880F991FFC01E255FF4FA591AA
:1005A000B4918C559F4FFC01C591D4919FB76111B7
:1005B00008C0F8948C91209582238C9388818223A3
:1005C0000AC0623051F4F8948C91322F3095832315
:1005D0008C938881822B888304C0F8948C91822B21
:1005E0008C939FBFDF91CF9108950F931F93CF936B
:1005F000DF931F92CDB7DEB7282F30E0F901E8591D
:10060000FF4F8491F901E458FF4F1491F901E0572D
:10061000FF4F04910023C9F0882321F069830E94D1
:1006200093026981E02FF0E0EE0FFF1FEC55FF4FC2
:10063000A591B4919FB7F8948C91611103C0109566
:10064000812301C0812B8C939FBF0F90DF91CF91AD
:100650001F910F91089508950E9458020E942B0344
:100660000E94DD01C0E0D0E00E9405022097E1F386
:100670000E940000F9CF991B79E004C0991F9617DA
:1006800008F0961B881F7A95C9F780950895EE0F9C
:0E069000FF1F0590F491E02D0994F894FFCF20
:04069E000100000057
:00000001FF
