:100000000C9476000C949E000C949E000C94AF040B
:100010000C94AF040C94AF040C949E000C949E00BE
:100020000C949E000C949E000C949E000C94740200
:100030000C949E000C949E000C949E000C949E00C8
:100040000C9440060C949E000C9457090C9489095A
:100050000C949E000C949E000C949E000C949E00A8
:100060000C949E000C949E00FA015302530253021A
:10007000EE01530253025302530253020E02530283
:1000800033025302EB0153021C022A020000000853
:10009000000201000003040700000000000000004F
:1000A000010204081020408001020408102001020F
:1000B00004081020040404040404040402020202DC
:1000C00002020303030303030000000023002600D1
:1000D000290000000000250028002B00000000007F
:1000E000240027002A00A501B909B40111241FBE6C
:1000F000CFEFD8E0DEBFCDBF11E0A0E0B1E0EEE091
:10010000F7E102C005900D92A832B107D9F722E0BD
:10011000A8E2B1E001C01D92A536B207E1F710E0F8
:10012000CAEED0E004C02297FE010E94620BC63ED8
:10013000D107C9F70E94FD090C947A0B0C940000BA
:1001400020E639E048EE53E069E070E082E591E0B6
:100150000E944C0320E639E048EE53E06AE070E08C
:100160008FE491E00E944C0361E087E00E94A307C6
:1001700061E088E00E94A30761E08EE00E94A3078F
:1001800061E08FE00E94A30761E08BE00E94A3077B
:1001900026E040E855E260E070E088EC91E00E94E3
:1001A000F50840E855E260E070E088E291E00C94E8
:1001B000B2050F931F93CF93DF938C011816190686
:1001C000BCF48091490190914A0197FD06C061E01D
:1001D00087E00E94DC0760E019C060E087E00E94D1
:1001E000DC0760E088E00E94DC0760E070E025C08A
:1001F0000097C9F08091490190914A01181619069B
:1002000064F360E087E00E94DC0761E088E00E9420
:10021000DC07C0914901D0914A01CB39D1059CF44A
:10022000CBE9D0E010C060E087E00E94DC0760E02E
:1002300088E00E94DC076FEF70E083E00E941B07FC
:1002400080E090E010C00C171D0764F0BE0183E051
:100250000E941B0765E070E080E090E00E94AD0620
:100260002196F1CFC801DF91CF911F910F91089591
:10027000CF93DF93181619062CF485569F4FC0E0D4
:10028000D0E00BC0009729F0EC01CB59D109CE0189
:1002900004C0C0E0D0E080E090E00E94D9009093DC
:1002A0004A0180934901D0934801C0934701DF91EF
:1002B000CF910895CF93C62F882389F060E087E01F
:1002C0000E94DC0760E088E00E94DC0760E070E0EC
:1002D00083E00E941B0710924A0110924901CC232F
:1002E00089F060E08EE00E94DC0760E08FE00E9411
:1002F000DC0760E070E08CE00E941B071092480170
:100300001092470168EC70E080E090E0CF910C948F
:10031000AD06CF93DF93C9ECD0E060E08BE00E94A4
:10032000DC0788EE93E00E94D50661E08BE00E9436
:10033000DC0788EE93E00E94D506219771F760E014
:100340008BE0DF91CF910C94DC0782E591E00E9475
:1003500030038FE491E00E94300320E041E060E050
:1003600088E291E00C94820588E291E00C942905E2
:10037000CF93CEE4C093040188E291E00E94580438
:10038000892B39F088E291E00E94CA03809304012E
:1003900002C0C0930401609104016E3451F0E091F9
:1003A000C801F091C9010190F081E02D88EC91E045
:1003B000099580910401992787FD9095A92FB92F60
:1003C000FC01E254F109E231F10508F06CC0EC5C8B
:1003D000FF4F0C94600B0E94890165C080914D0114
:1003E00090914E018436910510F40A9612C097FF41
:1003F0005AC034C080914D0190914E0118161906D3
:100400006CF19C012D593F4F273C310508F04BC042
:100410000A9790934E0180934D0145C080914B0106
:1004200090914C011816190684F09C012F5C3F4FE7
:1004300023363105C0F52EC080914B0190914C01BF
:100440008233910558F197FF2EC010924C01109203
:100450004B0129C010924E0110924D0161E081E0E4
:100460000E945A0120C080914D0190914E011816B2
:10047000190614F40A9703C0009729F00A9690937E
:100480004E0180934D0180914B0190914C011816C3
:10049000190614F4059703C0009729F00596909368
:1004A0004C0180934B0160914B0170914C01809104
:1004B0004D0190914E010E94380160914B01709165
:1004C0004C014AE050E088EC91E00E94F60A65E0B9
:1004D00071E088EC91E00E944A0A64E670E080E0F6
:1004E00090E0CF910C94AD061F920F920FB60F9231
:1004F00011242F933F934F935F936F937F938F9329
:100500009F93AF93BF93EF93FF938091560187FF23
:1005100005C010928500109284001AC020915601E7
:10052000332727FD30958091550190E02817390732
:100530007CF480915601992787FD9095FC01EE0F80
:10054000FF1FE80FF91FE95AFE4F808186FD15C095
:10055000809156018F5F8093560120915601332779
:1005600027FD30958091550190E028173907BCF49C
:10057000809156018C305CF112C080915601992710
:1005800087FD9095FC01EE0FFF1FE80FF91FE95A58
:10059000FE4F808160E08F730E94DC07D9CF80918D
:1005A000840090918500049680349C4918F480E47E
:1005B0009CE905C0809184009091850004969093F9
:1005C0008900809388008FEF8093560138C0209176
:1005D00084003091850080915601992787FD909580
:1005E000FC01EE0FFF1FE80FF91FE95AFE4F818152
:1005F0009281820F931F909389008093880080914D
:100600005601992787FD9095FC01EE0FFF1FE80F1B
:10061000F91FE95AFE4F808186FF11C08091560173
:10062000992787FD9095FC01EE0FFF1FE80FF91F3A
:10063000E95AFE4F808161E08F730E94DC07FF91D1
:10064000EF91BF91AF919F918F917F916F915F914A
:100650004F913F912F910F900FBE0F901F901895C3
:10066000209155012C30A0F431E0320F3093550128
:10067000FC012083822F90E0FC01EE0FFF1FE80FAA
:10068000F91FE95AFE4F88EB9BE09283818308951E
:100690002FEFFC0120830895DF92EF92FF920F93DA
:1006A0001F93CF93DF93EC01D62E7A0189018881C5
:1006B0008C3008F066C061E08D2D0E94A307888110
:1006C000A82FB0E0FD01EE0FFF1FEA0FFB1FE95A54
:1006D000FE4F2D2D2F739081907C922B908360E2A2
:1006E00072E06E197F0977FF02C06D5F7F4F7595CD
:1006F000679575956795698340E659E0401B510BF6
:1007000057FF02C04D5F5F4F5595479555954795EB
:100710004A836CE00E94FF0A9CE0899FB00111248B
:1007200020E030E0A901460F571FFA01EE0FFF1F2E
:10073000E40FF51FE95AFE4F908196FD16C02F5F1A
:100740003F4F2C30310571F781110FC0109280009E
:1007500082E0809381001092850010928400B19A0B
:1007600080916F00826080936F00888190E0FC012F
:10077000EE0FFF1FE80FF91FE95AFE4F80818064DA
:1007800080838881DF91CF911F910F91FF90EF902F
:10079000DF9008952091BD013091BE0128173907DF
:1007A000B9F490917B0180917C01981789F0E091D8
:1007B0007B01F0E0E358FE4F808120917B0130E027
:1007C0002F5F3F4F2F73332720937B0190E00895D5
:1007D0008FEF9FEF08951F93CF93DF93DC015C961B
:1007E0008D919C915D97009749F481E090E013967C
:1007F0009C938E93129780E090E03BC05196ED91D0
:10080000FC91529750962C915097322F30951FB7EC
:100810005E964C915E9741FB772770F941FD60959C
:10082000F8944081772311F0422B01C04323408389
:10083000EC012197F1F748E0508160FF02C0522B94
:1008400001C053235083EC012197F1F76695415085
:1008500099F78081772311F0832301C0822B808355
:100860001FBF5C968D919C915D970197F1F781E098
:1008700090E0DF91CF911F91089508952091BD01DF
:100880003091BE012817390781F490917B01809146
:100890007C01981751F0E0917B01F0E0E358FE4FA6
:1008A0008081992787FD909508958FEF9FEF089598
:1008B0002091BD013091BE012817390771F4809154
:1008C0007C0120917B0190E0805C9F4F821B91090D
:1008D00060E470E00E940B0B089580E090E00895C2
:1008E000E091BD01F091BE01E817F90769F4A38911
:1008F000B4899C918589809589238C931092BE013F
:100900001092BD0181E0089580E00895CF93DF93B8
:10091000EC018A8D9B8D892BF1F08091BD01909126
:10092000BE018C179D07B9F0009711F00E9470046A
:100930008E8D8E7F8E8F10927C0110927B01D093D2
:10094000BE01C093BD01EB89FC8980819D89892B03
:10095000808381E001C080E0DF91CF9108951F92F4
:100960000F920FB60F9211242F933F934F935F93E3
:100970006F937F938F939F93AF93BF93EF93FF9367
:10098000E091BD01F091BE01309709F451C0868D10
:10099000A685B785958581FF04C08C91892329F4AC
:1009A00047C08C91892309F043C0A389B4899C91E5
:1009B0008589809589238C93868997890197F1F79A
:1009C000208D318DA685B785758558E040E0C90139
:1009D0000197F1F7842F90E095958795482F6C91BA
:1009E000672309F04068515091F7868D81FD40954D
:1009F00080917C0190E001968F73992720917B0173
:100A0000281749F0A0917C01B0E0A358BE4F4C9349
:100A100080937C0103C0868D8160868F828D938D4B
:100A20000197F1F7A389B4898C919589892B8C93CF
:100A3000FF91EF91BF91AF919F918F917F916F91B6
:100A40005F914F913F912F910F900FBE0F901F908C
:100A500018952BE031E0FC01318320830C94700465
:100A60001F93CF93DF93EC01162F6E8D6695617007
:100A700081E06827812F0E94DC0761E0812F0E94BE
:100A8000A307812F90E0FC01E056FF4FE491E88B33
:100A9000FC01EC54FF4FE491F0E0EE0FFF1FEE522B
:100AA000FF4F859194919A8B898BDF91CF911F9104
:100AB00008951F93CF93DF93EC01162F60E0812FF1
:100AC0000E94A3078E8D81FD04C061E0812F0E94EA
:100AD000DC071C87812F90E0FC01E056FF4FE4917A
:100AE000ED87FC01EC54FF4FE491F0E0EE0FFF1FA7
:100AF000E853FF4F859194919F878E87DF91CF9127
:100B00001F910895FF920F931F93CF93DF93EC01F2
:100B1000F62E522F1B821A8208EE13E020E030E0FE
:100B20000C831D832E833F838BE091E09983888320
:100B30001F8A1E8A198E188E1B8E1A8E1D8E1C8E71
:100B40008E8D8E7F50FB81F98E8F642FCE010E9497
:100B500030056F2DCE01DF91CF911F910F91FF9046
:100B60000C945905CF93DF93EC019A01AB011B8ED6
:100B70001A8E198E188E1F8A1E8A60E079E08DE326
:100B800090E00E94410BC9012430310520F0B901E9
:100B90006350710902C061E070E07D8F6C8FEC855D
:100BA000E63108F068C0B901769567956431710542
:100BB00018F06351710902C061E070E07F8B6E8BA9
:100BC000069718F0C901059702C081E090E0998F5F
:100BD000888FC901880F991F820F931F969587955B
:100BE000969587958D30910510F00C9702C081E0A5
:100BF00090E09B8F8A8F20916800E83050F091E060
:100C0000EE3008F490E081E001C0880F9A95EAF791
:100C100001C084E0822B809368002C85283038F056
:100C20002E3040F0263148F48CE690E008C08DE686
:100C300090E005C08BE690E002C080E090E09C8BE5
:100C40008B8B283030F481E001C0880F2A95EAF7B9
:100C50000DC0822F90E02E3010F4089701C00E973F
:100C600091E001C0990F8A95EAF7892F8D8B8C8DC1
:100C70009D8D0197F1F7CE01DF91CF910C94860401
:100C80001F920F920FB60F9211242F933F938F93C1
:100C90009F93AF93BF938091C0019091C101A091A8
:100CA000C201B091C3013091BF0123E0230F2D3762
:100CB00020F40196A11DB11D05C026E8230F029660
:100CC000A11DB11D2093BF018093C0019093C1016C
:100CD000A093C201B093C3018091C4019091C5015A
:100CE000A091C601B091C7010196A11DB11D8093CD
:100CF000C4019093C501A093C601B093C701BF91F1
:100D0000AF919F918F913F912F910F900FBE0F90B8
:100D10001F9018953FB7F8948091C4019091C50138
:100D2000A091C601B091C70126B5A89B05C02F3F71
:100D300019F00196A11DB11D3FBF6627782F892F9D
:100D40009A2F620F711D811D911D42E0660F771F62
:100D5000881F991F4A95D1F70895CF92DF92EF929D
:100D6000FF92CF93DF936B017C010E948A06EB0117
:100D7000C114D104E104F10489F00E94FE0A0E942A
:100D80008A066C1B7D0B683E734090F381E0C81AA5
:100D9000D108E108F108C851DC4FEACFDF91CF91CB
:100DA000FF90EF90DF90CF9008958230910538F05A
:100DB000880F991F880F991F05970197F1F70895DC
:100DC000789484B5826084BD84B5816084BD85B526
:100DD000826085BD85B5816085BDEEE6F0E08081ED
:100DE00081608083E1E8F0E010828081826080830E
:100DF000808181608083E0E8F0E080818160808391
:100E0000E1EBF0E0808184608083E0EBF0E08081C2
:100E100081608083EAE7F0E0808184608083808164
:100E2000826080838081816080838081806880830C
:100E30001092C10008951F93CF93DF93182FEB01F9
:100E400061E00E94A307209711F460E004C0CF3F47
:100E5000D10539F461E0812FDF91CF911F910C947E
:100E6000DC07E12FF0E0E457FF4FE491E330F9F0C5
:100E700048F4E130B9F0E230A1F584B5806284BD78
:100E8000C8BD34C0E730E9F0E83019F1E43049F585
:100E900080918000806280938000D0938B00C0930B
:100EA0008A0024C084B5806884BDC7BD1FC08091FE
:100EB0008000806880938000D0938900C093880070
:100EC00015C08091B00080688093B000C093B300DB
:100ED0000DC08091B00080628093B000C093B400D8
:100EE00005C0C038D1050CF0B5CFAFCFDF91CF91A1
:100EF0001F910895833081F028F4813099F0823079
:100F0000A1F008958730A9F08830B9F08430D1F489
:100F1000809180008F7D03C0809180008F778093C7
:100F20008000089584B58F7702C084B58F7D84BD1D
:100F300008958091B0008F7703C08091B0008F7DBD
:100F40008093B0000895CF93DF9390E0FC01E056CA
:100F5000FF4F2491FC01EC54FF4F8491882349F109
:100F600090E0880F991FFC01E452FF4FA591B491C6
:100F70008E529F4FFC01C591D4919FB7611108C05B
:100F8000F8948C91209582238C93888182230AC0C7
:100F9000623051F4F8948C91322F309583238C93E6
:100FA0008881822B888304C0F8948C91822B8C9347
:100FB0009FBFDF91CF9108950F931F93CF93DF933E
:100FC0001F92CDB7DEB7282F30E0F901E457FF4F6D
:100FD0008491F901E056FF4F1491F901EC54FF4F51
:100FE00004910023C9F0882321F069830E947A07C5
:100FF0006981E02FF0E0EE0FFF1FEE52FF4FA59149
:10100000B4919FB7F8948C91611103C0109581231E
:1010100001C0812B8C939FBF0F90DF91CF911F91C7
:101020000F910895FC01818D228D90E0805C9F4F8F
:10103000821B91098F7399270895FC01918D828DF0
:10104000981731F0828DE80FF11D858D90E008959D
:101050008FEF9FEF0895FC01918D828D981761F0BD
:10106000828DDF01A80FB11D5D968C91928D9F5FDF
:101070009F73928F90E008958FEF9FEF08958FEA0E
:1010800099E0892B49F080E090E0892B29F00E94BB
:10109000AF0981110C9400000895FC01848DDF01DB
:1010A000A80FB11DA35ABF4F2C91848D90E00196DB
:1010B0008F739927848FA689B7892C93A089B189CA
:1010C0008C9180648C93938D848D981306C00288D4
:1010D000F389E02D80818F7D80830895CF93DF9306
:1010E000EC01888D8823C9F0EA89FB89808185FD20
:1010F00005C0A889B9898C9186FD0FC00FB607FC81
:10110000F5CF808185FFF2CFA889B9898C9185FFC1
:10111000EDCFCE010E944D08E7CFDF91CF9108952A
:10112000CF92DF92FF920F931F93CF93DF931F9283
:10113000CDB7DEB76C0181E0D60158968C935897F5
:101140005B969C915B975C968C915C97981307C01B
:101150005096ED91FC915197808185FD2EC0F6014E
:10116000038D10E00F5F1F4F0F731127F02EF60154
:10117000848DF81211C00FB607FCF9CFD601509636
:10118000ED91FC915197808185FFF1CFC601698374
:101190000E944D086981EBCF838DE80FF11DE35A62
:1011A000FF4F6083D6015B960C935B975296ED914F
:1011B000FC915397808180620CC0D6015696ED91C8
:1011C000FC91579760835096ED91FC9151978081E7
:1011D0008064808381E090E00F90DF91CF911F9138
:1011E0000F91FF90DF90CF900895BF92CF92DF9242
:1011F000EF92FF92CF93DF93EC016A017B01B22E55
:10120000E889F98982E08083411581EE58076105FC
:101210007105A1F060E079E08DE390E0A70196010F
:101220000E941F0B215031094109510956954795DC
:1012300037952795211580E1380798F0E889F989D5
:10124000108260E874E88EE190E0A70196010E94A8
:101250001F0B215031094109510956954795379582
:101260002795EC85FD853083EE85FF852083188EDC
:10127000EC89FD89B082EA89FB8980818061808365
:10128000EA89FB89808188608083EA89FB89808183
:1012900080688083EA89FB8980818F7D8083DF91EC
:1012A000CF91FF90EF90DF90CF90BF9008951F9265
:1012B0000F920FB60F9211242F938F939F93EF935A
:1012C000FF93E091D801F091D9018081E091DE0196
:1012D000F091DF0182FD12C090818091E1018F5F6A
:1012E0008F732091E201821751F0E091E101F0E06B
:1012F000E853FE4F958F8093E10101C08081FF91FB
:10130000EF919F918F912F910F900FBE0F901F9093
:1013100018951F920F920FB60F9211242F933F939F
:101320004F935F936F937F938F939F93AF93BF93ED
:10133000EF93FF9388EC91E00E944D08FF91EF91AD
:10134000BF91AF919F918F917F916F915F914F91DD
:101350003F912F910F900FBE0F901F90189588EC22
:1013600091E00E94120821E0892B09F420E0822FED
:1013700008951092CB011092CA0188EE93E0A0E08C
:10138000B0E08093CC019093CD01A093CE01B093B7
:10139000CF018BE191E09093C9018093C80185EC66
:1013A00090E09093D5018093D40184EC90E09093E9
:1013B000D7018093D60180EC90E09093D90180937F
:1013C000D80181EC90E09093DB018093DA0182EC0C
:1013D00090E09093DD018093DC0186EC90E09093A7
:1013E000DF018093DE011092E1011092E201109280
:1013F000E3011092E401089508950E94E0060E941E
:10140000FC090E94A000CFE3D8E00E94B801209719
:10141000E1F30E943F08F9CFCF92DF92EF92FF9263
:101420000F931F93CF93DF937C016A01EB0100E0E0
:1014300010E00C151D0571F06991D701ED91FC913B
:101440000190F081E02DC7010995892B19F00F5FFC
:101450001F4FEFCFC801DF91CF911F910F91FF90E8
:10146000EF90DF90CF9008956115710581F0DB0159
:101470000D900020E9F7AD0141505109461B570B73
:10148000DC01ED91FC910280F381E02D099480E074
:1014900090E008950C94340ADC01ED91FC910190E8
:1014A000F081E02D09948F929F92AF92BF92CF92DC
:1014B000DF92EF92FF920F931F93CF93DF93CDB7FD
:1014C000DEB7A1970FB6F894DEBF0FBECDBF7C018B
:1014D000C42EE52FCB01D22E19A221E02D1510F03C
:1014E0002AE0D22E8E010F5D1F4F8D2C912CA12C46
:1014F000B12C6C2D7E2FA50194010E941F0B8C2D09
:10150000D29E80191124015011098A3014F4805D93
:1015100001C0895CF8018083211531054105510521
:1015200021F0C22EE32FCA01E4CFB801C7010E9407
:10153000340AA1960FB6F894DEBF0FBECDBFDF917F
:10154000CF911F910F91FF90EF90DF90CF90BF90C0
:10155000AF909F908F900895CF92DF92EF92FF927D
:101560000F931F93CF93DF93EC016A017B01211549
:10157000310579F4E881F9810190F081E02D642F43
:10158000DF91CF911F910F91FF90EF90DF90CF905F
:1015900009942A303105E9F477FF1AC06DE20E9400
:1015A0004C0A8C0144275527BA014C195D096E0974
:1015B0007F092AE0CE010E94530A800F911FDF911C
:1015C000CF911F910F91FF90EF90DF90CF900895F2
:1015D0002AE0B701A601CE01DF91CF911F910F91B3
:1015E000FF90EF90DF90CF900C94530A9A01AB01DB
:1015F000662757FD6095762F0C94AC0A0895991BC9
:1016000079E004C0991F961708F0961B881F7A95F9
:10161000C9F78095089597FB072E16F4009407D01C
:1016200077FD09D00E94660B07FC05D03EF490952B
:1016300081959F4F0895709561957F4F0895A1E220
:101640001A2EAA1BBB1BFD010DC0AA1FBB1FEE1F3C
:10165000FF1FA217B307E407F50720F0A21BB30B87
:10166000E40BF50B661F771F881F991F1A9469F703
:1016700060957095809590959B01AC01BD01CF015F
:101680000895052E97FB1EF400940E94580B57FDF9
:1016900007D00E941F0B07FC03D04EF40C94580B8C
:1016A00050954095309521953F4F4F4F5F4F08958E
:1016B00090958095709561957F4F8F4F9F4F0895BE
:1016C000EE0FFF1F0590F491E02D0994AA1BBB1BA0
:1016D00051E107C0AA1FBB1FA617B70710F0A61B32
:1016E000B70B881F991F5A95A9F780959095BC0153
:1016F000CD01089510E0CAEED0E004C0FE010E94C2
:0E170000620B2296CC3ED107C9F7F894FFCFBA
:10170E00010000004E0A0000000000EB030C0A5816
:10171E0004CA033E043D040000000090080C0A12A7
:08172E00082B081D086E0800DD
:00000001FF
