:100000000C9476000C949E000C949E000C94E103DA
:100010000C94E1030C94E1030C949E000C949E005C
:100020000C949E000C949E000C949E000C94A601CF
:100030000C949E000C949E000C949E000C949E00C8
:100040000C9472050C949E000C9489080C94BB08C7
:100050000C949E000C949E000C949E000C949E00A8
:100060000C949E000C949E0071017F017F017F0122
:100070006C017F017F017F017F017F018F017F0183
:100080007F017F0169017F018F0176010000000877
:10009000000201000003040700000000000000004F
:1000A000010204081020408001020408102001020F
:1000B00004081020040404040404040402020202DC
:1000C00002020303030303030000000023002600D1
:1000D000290000000000250028002B00000000007F
:1000E000240027002A002401EB08330111241FBE3D
:1000F000CFEFD8E0DEBFCDBF11E0A0E0B1E0E2E796
:10010000F5E102C005900D92A832B107D9F722E0BF
:10011000A8E2B1E001C01D92A336B207E1F710E0FA
:10012000CAEED0E004C02297FE010E94940AC63EA7
:10013000D107C9F70E942F090C94AC0A0C94000057
:1001400020E639E048EE53E069E070E080E591E0B8
:100150000E947E0220E639E048EE53E06AE070E05B
:100160008DE491E00E947E0261E087E00E94D50666
:1001700061E088E00E94D50661E08EE00E94D5062D
:1001800061E08FE00E94D50661E08BE00E94D50619
:1001900026E040E855E260E070E086EC91E00E94E5
:1001A000270840E855E260E070E088E291E00C94B6
:1001B000E404CF93C62F882389F060E087E00E9493
:1001C0000E0760E088E00E940E0760E070E083E0C8
:1001D0000E944D0610924A0110924901CC2389F0E9
:1001E00060E08EE00E940E0760E08FE00E940E0744
:1001F00060E070E08CE00E944D0610924801109281
:10020000470168EC70E080E090E0CF910C94DF054E
:10021000CF93DF93C9ECD0E060E08BE00E940E0743
:1002200088EE93E00E94070661E08BE00E940E07D3
:1002300088EE93E00E940706219771F760E08BE05B
:10024000DF91CF910C940E0780E591E00E9462024D
:100250008DE491E00E94620220E041E060E088E2EB
:1002600091E00C94B40488E291E00C945B04CF9389
:10027000CEE4C093040188E291E00E948A03892BB6
:1002800039F088E291E00E94FC028093040102C0F0
:10029000C0930401609104016E3451F0E091C601F5
:1002A000F091C7010190F081E02D86EC91E0099575
:1002B00080910401992787FD9095A92FB92FFC0102
:1002C000E254F109E231F105D0F4EC5CFF4F0C94FB
:1002D000920A0E94080123C080914B0190914C0129
:1002E00019C080914B0190914C0110C010924C01AB
:1002F00010924B0161E081E00E94D90010C0809112
:100300004B0190914C011816190614F4019703C083
:10031000009729F0019690934C0180934B016091D6
:100320004B0170914C014AE050E086EC91E00E9454
:10033000280A65E071E086EC91E00E947C096AEF92
:1003400070E080E090E0CF910C94DF051F920F9257
:100350000FB60F9211242F933F934F935F936F9398
:100360007F938F939F93AF93BF93EF93FF9380916E
:10037000540187FF05C010928500109284001AC0B6
:1003800020915401332727FD30958091530190E04F
:10039000281739077CF480915401992787FD90959F
:1003A000FC01EE0FFF1FE80FF91FEB5AFE4F808193
:1003B00086FD15C0809154018F5F80935401209178
:1003C0005401332727FD30958091530190E0281781
:1003D0003907BCF4809154018C305CF112C08091DB
:1003E0005401992787FD9095FC01EE0FFF1FE80F40
:1003F000F91FEB5AFE4F808160E08F730E940E0759
:10040000D9CF8091840090918500049680349C49D6
:1004100018F480E49CE905C08091840090918500E7
:10042000049690938900809388008FEF8093540105
:1004300038C0209184003091850080915401992723
:1004400087FD9095FC01EE0FFF1FE80FF91FEB5A97
:10045000FE4F81819281820F931F90938900809338
:10046000880080915401992787FD9095FC01EE0F3B
:10047000FF1FE80FF91FEB5AFE4F808186FF11C066
:1004800080915401992787FD9095FC01EE0FFF1F85
:10049000E80FF91FEB5AFE4F808161E08F730E94D5
:1004A0000E07FF91EF91BF91AF919F918F917F9137
:1004B0006F915F914F913F912F910F900FBE0F90D1
:1004C0001F901895209153012C30A0F431E0320F89
:1004D00030935301FC012083822F90E0FC01EE0F4A
:1004E000FF1FE80FF91FEB5AFE4F88EB9BE092834A
:1004F000818308952FEFFC0120830895DF92EF920E
:10050000FF920F931F93CF93DF93EC01D62E7A01C6
:10051000890188818C3008F066C061E08D2D0E94D1
:10052000D5068881A82FB0E0FD01EE0FFF1FEA0F6E
:10053000FB1FEB5AFE4F2D2D2F739081907C922B39
:10054000908360E272E06E197F0977FF02C06D5FF1
:100550007F4F7595679575956795698340E659E076
:10056000401B510B57FF02C04D5F5F4F559547959C
:10057000559547954A836CE00E94310A9CE0899F1B
:10058000B001112420E030E0A901460F571FFA0105
:10059000EE0FFF1FE40FF51FEB5AFE4F908196FD03
:1005A00016C02F5F3F4F2C30310571F781110FC0FE
:1005B0001092800082E0809381001092850010925A
:1005C0008400B19A80916F00826080936F0088816F
:1005D00090E0FC01EE0FFF1FE80FF91FEB5AFE4FF2
:1005E0008081806480838881DF91CF911F910F91FA
:1005F000FF90EF90DF9008952091BB013091BC01F6
:1006000028173907B9F49091790180917A019817E8
:1006100089F0E0917901F0E0E558FE4F808120916A
:10062000790130E02F5F3F4F2F73332720937901FB
:1006300090E008958FEF9FEF08951F93CF93DF937E
:10064000DC015C968D919C915D97009749F481E067
:1006500090E013969C938E93129780E090E03BC0BD
:100660005196ED91FC91529750962C915097322FC4
:1006700030951FB75E964C915E9741FB772770F9D6
:1006800041FD6095F8944081772311F0422B01C021
:1006900043234083EC012197F1F748E0508160FF4C
:1006A00002C0522B01C053235083EC012197F1F774
:1006B0006695415099F78081772311F0832301C01B
:1006C000822B80831FBF5C968D919C915D970197D3
:1006D000F1F781E090E0DF91CF911F9108950895A7
:1006E0002091BB013091BC012817390781F490910A
:1006F000790180917A01981751F0E0917901F0E049
:10070000E558FE4F8081992787FD909508958FEFDA
:100710009FEF08952091BB013091BC012817390744
:1007200071F480917A012091790190E0805C9F4F73
:10073000821B910960E470E00E943D0A089580E008
:1007400090E00895E091BB01F091BC01E817F90732
:1007500069F4A389B4899C918589809589238C93B8
:100760001092BC011092BB0181E0089580E00895D1
:10077000CF93DF93EC018A8D9B8D892BF1F08091D3
:10078000BB019091BC018C179D07B9F0009711F047
:100790000E94A2038E8D8E7F8E8F10927A0110920E
:1007A0007901D093BC01C093BB01EB89FC898081A6
:1007B0009D89892B808381E001C080E0DF91CF910A
:1007C00008951F920F920FB60F9211242F933F930B
:1007D0004F935F936F937F938F939F93AF93BF9349
:1007E000EF93FF93E091BB01F091BC01309709F4C6
:1007F00051C0868DA685B785958581FF04C08C91F3
:10080000892329F447C08C91892309F043C0A38927
:10081000B4899C918589809589238C938689978951
:100820000197F1F7208D318DA685B785758558E044
:1008300040E0C9010197F1F7842F90E095958795E5
:10084000482F6C91672309F04068515091F7868DCD
:1008500081FD409580917A0190E001968F739927F0
:1008600020917901281749F0A0917A01B0E0A558AC
:10087000BE4F4C9380937A0103C0868D8160868F32
:10088000828D938D0197F1F7A389B4898C91958915
:10089000892B8C93FF91EF91BF91AF919F918F9195
:1008A0007F916F915F914F913F912F910F900FBE6C
:1008B0000F901F9018952BE031E0FC0131832083CD
:1008C0000C94A2031F93CF93DF93EC01162F6E8D30
:1008D0006695617081E06827812F0E940E0761E0B4
:1008E000812F0E94D506812F90E0FC01E056FF4F3A
:1008F000E491E88BFC01EC54FF4FE491F0E0EE0F43
:10090000FF1FEE52FF4F859194919A8B898BDF9157
:10091000CF911F9108951F93CF93DF93EC01162F72
:1009200060E0812F0E94D5068E8D81FD04C061E0BC
:10093000812F0E940E071C87812F90E0FC01E0565A
:10094000FF4FE491ED87FC01EC54FF4FE491F0E0A0
:10095000EE0FFF1FE853FF4F859194919F878E877D
:10096000DF91CF911F910895FF920F931F93CF9323
:10097000DF93EC01F62E522F1B821A8208EE13E051
:1009800020E030E00C831D832E833F838BE091E0D9
:10099000998388831F8A1E8A198E188E1B8E1A8E41
:1009A0001D8E1C8E8E8D8E7F50FB81F98E8F642F55
:1009B000CE010E9462046F2DCE01DF91CF911F9175
:1009C0000F91FF900C948B04CF93DF93EC019A016D
:1009D000AB011B8E1A8E198E188E1F8A1E8A60E03C
:1009E00079E08DE390E00E94730AC901243031055B
:1009F00020F0B9016350710902C061E070E07D8FA1
:100A00006C8FEC85E63108F068C0B9017695679582
:100A10006431710518F06351710902C061E070E042
:100A20007F8B6E8B069718F0C901059702C081E095
:100A300090E0998F888FC901880F991F820F931FAB
:100A400096958795969587958D30910510F00C9722
:100A500002C081E090E09B8F8A8F20916800E8308F
:100A600050F091E0EE3008F490E081E001C0880F92
:100A70009A95EAF701C084E0822B809368002C8568
:100A8000283038F02E3040F0263148F48CE690E0E3
:100A900008C08DE690E005C08BE690E002C080E0E3
:100AA00090E09C8B8B8B283030F481E001C0880F64
:100AB0002A95EAF70DC0822F90E02E3010F40897A7
:100AC00001C00E9791E001C0990F8A95EAF7892F2E
:100AD0008D8B8C8D9D8D0197F1F7CE01DF91CF919C
:100AE0000C94B8031F920F920FB60F9211242F93FC
:100AF0003F938F939F93AF93BF938091BE0190914B
:100B0000BF01A091C001B091C1013091BD0123E0AE
:100B1000230F2D3720F40196A11DB11D05C026E835
:100B2000230F0296A11DB11D2093BD018093BE012C
:100B30009093BF01A093C001B093C1018091C20105
:100B40009091C301A091C401B091C5010196A11D6E
:100B5000B11D8093C2019093C301A093C401B093CF
:100B6000C501BF91AF919F918F913F912F910F90B0
:100B70000FBE0F901F9018953FB7F8948091C20157
:100B80009091C301A091C401B091C50126B5A89B65
:100B900005C02F3F19F00196A11DB11D3FBF66276B
:100BA000782F892F9A2F620F711D811D911D42E0B0
:100BB000660F771F881F991F4A95D1F70895CF9226
:100BC000DF92EF92FF92CF93DF936B017C010E9443
:100BD000BC05EB01C114D104E104F10489F00E94C9
:100BE000300A0E94BC056C1B7D0B683E734090F37D
:100BF00081E0C81AD108E108F108C851DC4FEACFFA
:100C0000DF91CF91FF90EF90DF90CF9008958230E9
:100C1000910538F0880F991F880F991F0597019744
:100C2000F1F70895789484B5826084BD84B58160BD
:100C300084BD85B5826085BD85B5816085BDEEE6E4
:100C4000F0E0808181608083E1E8F0E010828081C3
:100C500082608083808181608083E0E8F0E0808131
:100C600081608083E1EBF0E0808184608083E0EB51
:100C7000F0E0808181608083EAE7F0E08081846039
:100C80008083808182608083808181608083808195
:100C9000806880831092C10008951F93CF93DF93E3
:100CA000182FEB0161E00E94D506209711F460E057
:100CB00004C0CF3FD10539F461E0812FDF91CF919E
:100CC0001F910C940E07E12FF0E0E457FF4FE491E1
:100CD000E330F9F048F4E130B9F0E230A1F584B541
:100CE000806284BDC8BD34C0E730E9F0E83019F156
:100CF000E43049F580918000806280938000D09339
:100D00008B00C0938A0024C084B5806884BDC7BDB1
:100D10001FC080918000806880938000D0938900FC
:100D2000C093880015C08091B00080688093B000A7
:100D3000C093B3000DC08091B00080628093B0007A
:100D4000C093B40005C0C038D1050CF0B5CFAFCF0B
:100D5000DF91CF911F910895833081F028F4813085
:100D600099F08230A1F008958730A9F08830B9F069
:100D70008430D1F4809180008F7D03C08091800009
:100D80008F7780938000089584B58F7702C084B5F3
:100D90008F7D84BD08958091B0008F7703C08091CE
:100DA000B0008F7D8093B0000895CF93DF9390E0E3
:100DB000FC01E056FF4F2491FC01EC54FF4F84915D
:100DC000882349F190E0880F991FFC01E452FF4FFE
:100DD000A591B4918E529F4FFC01C591D4919FB7BC
:100DE000611108C0F8948C91209582238C9388819E
:100DF00082230AC0623051F4F8948C91322F3095DE
:100E000083238C938881822B888304C0F8948C91EF
:100E1000822B8C939FBFDF91CF9108950F931F93E7
:100E2000CF93DF931F92CDB7DEB7282F30E0F901C3
:100E3000E457FF4F8491F901E056FF4F1491F901F7
:100E4000EC54FF4F04910023C9F0882321F06983FB
:100E50000E94AC066981E02FF0E0EE0FFF1FEE521A
:100E6000FF4FA591B4919FB7F8948C91611103C085
:100E70001095812301C0812B8C939FBF0F90DF9130
:100E8000CF911F910F910895FC01818D228D90E0EB
:100E9000805C9F4F821B91098F7399270895FC01F5
:100EA000918D828D981731F0828DE80FF11D858D1F
:100EB00090E008958FEF9FEF0895FC01918D828D52
:100EC000981761F0828DDF01A80FB11D5D968C919E
:100ED000928D9F5F9F73928F90E008958FEF9FEFA9
:100EE000089581EE98E0892B49F080E090E0892B0D
:100EF00029F00E94E10881110C9400000895FC0182
:100F0000848DDF01A80FB11DA35ABF4F2C91848D92
:100F100090E001968F739927848FA689B7892C93C7
:100F2000A089B1898C9180648C93938D848D981362
:100F300006C00288F389E02D80818F7D808308952B
:100F4000CF93DF93EC01888D8823C9F0EA89FB8970
:100F5000808185FD05C0A889B9898C9186FD0FC067
:100F60000FB607FCF5CF808185FFF2CFA889B9893C
:100F70008C9185FFEDCFCE010E947F07E7CFDF91F7
:100F8000CF910895CF92DF92FF920F931F93CF934B
:100F9000DF931F92CDB7DEB76C0181E0D601589682
:100FA0008C9358975B969C915B975C968C915C9721
:100FB000981307C05096ED91FC915197808185FD63
:100FC0002EC0F601038D10E00F5F1F4F0F73112726
:100FD000F02EF601848DF81211C00FB607FCF9CF80
:100FE000D6015096ED91FC915197808185FFF1CF0C
:100FF000C60169830E947F076981EBCF838DE80F6B
:10100000F11DE35AFF4F6083D6015B960C935B970B
:101010005296ED91FC915397808180620CC0D6016D
:101020005696ED91FC91579760835096ED91FC9107
:10103000519780818064808381E090E00F90DF9100
:10104000CF911F910F91FF90DF90CF900895BF92A5
:10105000CF92DF92EF92FF92CF93DF93EC016A0180
:101060007B01B22EE889F98982E08083411581EE07
:10107000580761057105A1F060E079E08DE390E02B
:10108000A70196010E94510A2150310941095109D5
:101090005695479537952795211580E1380798F0A3
:1010A000E889F989108260E874E88EE190E0A70190
:1010B00096010E94510A2150310941095109569562
:1010C000479537952795EC85FD853083EE85FF851F
:1010D0002083188EEC89FD89B082EA89FB898081A2
:1010E00080618083EA89FB89808188608083EA89C6
:1010F000FB89808180688083EA89FB8980818F7D7C
:101100008083DF91CF91FF90EF90DF90CF90BF90E1
:1011100008951F920F920FB60F9211242F938F9361
:101120009F93EF93FF93E091D601F091D7018081D7
:10113000E091DC01F091DD0182FD12C0908180918F
:10114000DF018F5F8F732091E001821751F0E091F2
:10115000DF01F0E0EA53FE4F958F8093DF0101C07D
:101160008081FF91EF919F918F912F910F900FBEF2
:101170000F901F9018951F920F920FB60F92112487
:101180002F933F934F935F936F937F938F939F938F
:10119000AF93BF93EF93FF9386EC91E00E947F079C
:1011A000FF91EF91BF91AF919F918F917F916F913F
:1011B0005F914F913F912F910F900FBE0F901F9015
:1011C000189586EC91E00E94440721E0892B09F4F0
:1011D00020E0822F08951092C9011092C80188EE74
:1011E00093E0A0E0B0E08093CA019093CB01A0937C
:1011F000CC01B093CD018BE191E09093C701809336
:10120000C60185EC90E09093D3018093D20184ECE9
:1012100090E09093D5018093D40180EC90E090937E
:10122000D7018093D60181EC90E09093D90180930F
:10123000D80182EC90E09093DB018093DA0186EC98
:1012400090E09093DD018093DC011092DF01109219
:10125000E0011092E1011092E201089508950E94C8
:1012600012060E942E090E94A000C1E7D7E00E944A
:1012700037012097E1F30E947107F9CFCF92DF92F7
:10128000EF92FF920F931F93CF93DF937C016A013C
:10129000EB0100E010E00C151D0571F06991D7011C
:1012A000ED91FC910190F081E02DC7010995892B0A
:1012B00019F00F5F1F4FEFCFC801DF91CF911F9142
:1012C0000F91FF90EF90DF90CF9008956115710519
:1012D00081F0DB010D900020E9F7AD01415051098B
:1012E000461B570BDC01ED91FC910280F381E02D50
:1012F000099480E090E008950C946609DC01ED917A
:10130000FC910190F081E02D09948F929F92AF9211
:10131000BF92CF92DF92EF92FF920F931F93CF93E2
:10132000DF93CDB7DEB7A1970FB6F894DEBF0FBE3F
:10133000CDBF7C01C42EE52FCB01D22E19A221E016
:101340002D1510F02AE0D22E8E010F5D1F4F8D2C2F
:10135000912CA12CB12C6C2D7E2FA50194010E9403
:10136000510A8C2DD29E80191124015011098A3006
:1013700014F4805D01C0895CF8018083211531057A
:101380004105510521F0C22EE32FCA01E4CFB80177
:10139000C7010E946609A1960FB6F894DEBF0FBE82
:1013A000CDBFDF91CF911F910F91FF90EF90DF9014
:1013B000CF90BF90AF909F908F900895CF92DF9283
:1013C000EF92FF920F931F93CF93DF93EC016A018B
:1013D0007B012115310579F4E881F9810190F081D3
:1013E000E02D642FDF91CF911F910F91FF90EF902F
:1013F000DF90CF9009942A303105E9F477FF1AC0C5
:101400006DE20E947E098C0144275527BA014C19D0
:101410005D096E097F092AE0CE010E948509800FCF
:10142000911FDF91CF911F910F91FF90EF90DF906F
:10143000CF9008952AE0B701A601CE01DF91CF91A8
:101440001F910F91FF90EF90DF90CF900C94850942
:101450009A01AB01662757FD6095762F0C94DE0943
:101460000895991B79E004C0991F961708F0961B00
:10147000881F7A95C9F78095089597FB072E16F473
:10148000009407D077FD09D00E94980A07FC05D088
:101490003EF4909581959F4F0895709561957F4F8B
:1014A0000895A1E21A2EAA1BBB1BFD010DC0AA1FA5
:1014B000BB1FEE1FFF1FA217B307E407F50720F0BD
:1014C000A21BB30BE40BF50B661F771F881F991F38
:1014D0001A9469F760957095809590959B01AC0181
:1014E000BD01CF010895052E97FB1EF400940E94C4
:1014F0008A0A57FD07D00E94510A07FC03D04EF418
:101500000C948A0A50954095309521953F4F4F4F46
:101510005F4F089590958095709561957F4F8F4F9F
:101520009F4F0895EE0FFF1F0590F491E02D099451
:10153000AA1BBB1B51E107C0AA1FBB1FA617B707F9
:1015400010F0A61BB70B881F991F5A95A9F7809515
:101550009095BC01CD01089510E0CAEED0E004C022
:10156000FE010E94940A2296CC3ED107C9F7F89456
:02157000FFCFAB
:10157200010000004E0A00000000001D033E098A1F
:1015820003FC0270036F0300000000C2073E09441F
:08159200075D074F07A00700E9
:00000001FF
