:100000000C9463000C948B000C948B000C946D0486
:100010000C946D040C946D040C948B000C948B0068
:100020000C948B000C948B000C948B000C9432027B
:100030000C948B000C948B000C948B000C948B0014
:100040000C94FE050C948B000C948B000C948B008C
:100050000C948B000C948B000C948B000C948B00F4
:100060000C948B000C948B0000000008000201002F
:100070000003040700000000000000000102040863
:100080001020408001020408102001020408102002
:10009000040404040404040402020202020203032E
:1000A00003030303000000002300260029000000D2
:1000B0000000250028002B0000000000240027007D
:1000C0002A00AB01BA0111241FBECFEFD8E0DEBF7A
:1000D000CDBF11E0A0E0B1E0E2E2F1E102C00590A5
:1000E0000D92A631B107D9F721E0A6E1B1E001C038
:1000F0001D92A63BB207E1F710E0C4ECD0E004C0CB
:100100002297FE010E948008C23CD107C9F70E94D5
:10011000D1070C9484080C94000020E639E048EEE6
:1001200053E069E070E080E491E00E940A0320E679
:1001300039E048EE53E06AE070E08DE391E00E9420
:100140000A0361E087E00E94610761E088E00E94A5
:10015000610761E08EE00E94610761E08FE00E942C
:10016000610761E08BE00E94610740E855E260E0D2
:1001700070E08EE191E00C947005CF93C62F882338
:1001800089F060E087E00E949A0760E088E00E94C2
:100190009A0760E070E083E00E94D906109219018E
:1001A00010921801CC2389F060E08EE00E949A073B
:1001B00060E08FE00E949A0760E070E086E00E94B5
:1001C000D906109217011092160168EC70E080E0D9
:1001D00090E0CF910C946B06CF93DF93EC0118164F
:1001E000190664F4809118019091190197FD08C0D7
:1001F00061E087E00E949A0760E015C0009739F43B
:1002000060E081E00E94BD0080E090E01AC0809133
:100210001801909119011816190694F360E087E00F
:100220000E949A0761E088E00E949A07BE01D7FF0A
:1002300004C0662777276C1B7D0B83E00E94D906DC
:10024000CE01DF91CF910895CF93DF93EC01181683
:1002500019068CF4809116019091170197FD06C044
:1002600061E08EE00E949A0760E013C061E080E0E8
:100270000E94BD0026C00097B9F0809116019091B0
:1002800017011816190694F360E08EE00E949A0791
:1002900061E08FE00E949A07BE01D7FF15C0662774
:1002A00077276C1B7D0B10C060E08EE00E949A07E0
:1002B00060E08FE00E949A076FEF70E086E00E9496
:1002C000D90680E090E004C086E00E94D906CE0105
:1002D000DF91CF910895CF93DF93181619061CF480
:1002E000805B9F4F07C0009719F08055910902C0AD
:1002F00080E090E0EC01C61BD70B860F971F0E9491
:10030000EC009093190180931801CE010E94240102
:100310009093170180931601DF91CF910895CF93A9
:10032000DF93C9ECD0E060E08BE00E949A0788EE92
:1003300093E00E94930661E08BE00E949A0788EEAA
:1003400093E00E949306219771F760E08BE0DF91C4
:10035000CF910C949A0780E491E00E94EE028DE325
:1003600091E00E94EE0220E041E060E08EE191E049
:100370000C9440058EE191E00C94E7048EE191E04D
:100380000E941604892B31F08EE191E00E948803CF
:1003900080930401209104012C3479F14CF4809174
:1003A0001C0190911D012234F1F0263471F050C0EF
:1003B000223591F12335E9F1203509F049C00E9439
:1003C0008F018EE48093040143C097FF09C061E070
:1003D00081E00E94BD0010921D0110921C0138C0E6
:1003E0008AE090E005C0181619068CF386EF9FEF9F
:1003F00090931D0180931C012BC080911A01909154
:100400001B01181619061CF08BEF9FEF0DC0109200
:100410001B0110921A011CC080911A0190911B01BE
:1004200097FDF5CF85E090E090931B0180931A0132
:100430000FC08EE48093040110921D0110921C01E4
:1004400010921B0110921A0161E081E00E94BD0030
:1004500060911A0170911B0180911C0190911D0106
:100460000C946B011F920F920FB60F9211242F93D1
:100470003F934F935F936F937F938F939F93AF932C
:10048000BF93EF93FF938091440187FF05C01092C3
:100490008500109284001AC020914401332727FD63
:1004A00030958091430190E0281739077CF48091C2
:1004B0004401992787FD9095FC01EE0FFF1FE80F7F
:1004C000F91FEB5BFE4F808186FD15C080914401D2
:1004D0008F5F8093440120914401332727FD30959D
:1004E0008091430190E028173907BCF480914401C2
:1004F0008C305CF112C080914401992787FD909562
:10050000FC01EE0FFF1FE80FF91FEB5BFE4F808130
:1005100060E08F730E949A07D9CF809184009091F8
:100520008500049680349C4918F480E49CE905C059
:100530008091840090918500049690938900809327
:1005400088008FEF8093440138C02091840030915F
:10055000850080914401992787FD9095FC01EE0F5D
:10056000FF1FE80FF91FEB5BFE4F81819281820F25
:10057000931F90938900809388008091440199276C
:1005800087FD9095FC01EE0FFF1FE80FF91FEB5B55
:10059000FE4F808186FF11C080914401992787FD1D
:1005A0009095FC01EE0FFF1FE80FF91FEB5BFE4F6C
:1005B000808161E08F730E949A07FF91EF91BF9154
:1005C000AF919F918F917F916F915F914F913F91EB
:1005D0002F910F900FBE0F901F90189520914301FF
:1005E0002C30A0F431E0320F30934301FC01208322
:1005F000822F90E0FC01EE0FFF1FE80FF91FEB5B6D
:10060000FE4F88EB9BE09283818308952FEFFC01DE
:1006100020830895DF92EF92FF920F931F93CF9361
:10062000DF93EC01D62E7A01890188818C3008F0A5
:1006300066C061E08D2D0E9461078881A82FB0E01F
:10064000FD01EE0FFF1FEA0FFB1FEB5BFE4F2D2D91
:100650002F739081907C922B908360E272E06E19F0
:100660007F0977FF02C06D5F7F4F75956795759520
:100670006795698340E659E0401B510B57FF02C064
:100680004D5F5F4F55954795559547954A836CE06B
:100690000E9409089CE0899FB001112420E030E00D
:1006A000A901460F571FFA01EE0FFF1FE40FF51FB8
:1006B000EB5BFE4F908196FD16C02F5F3F4F2C30B5
:1006C000310571F781110FC01092800082E0809394
:1006D00081001092850010928400B19A80916F0081
:1006E000826080936F00888190E0FC01EE0FFF1F15
:1006F000E80FF91FEB5BFE4F808180648083888167
:10070000DF91CF911F910F91FF90EF90DF900895AF
:100710002091AB013091AC0128173907B9F49091C1
:10072000690180916A01981789F0E0916901F0E010
:10073000E559FE4F80812091690130E02F5F3F4FE6
:100740002F7333272093690190E008958FEF9FEF77
:1007500008951F93CF93DF93DC015C968D919C915C
:100760005D97009749F481E090E013969C938E93F7
:10077000129780E090E03BC05196ED91FC9152972A
:1007800050962C915097322F30951FB75E964C9112
:100790005E9741FB772770F941FD6095F8944081A1
:1007A000772311F0422B01C043234083EC012197B2
:1007B000F1F748E0508160FF02C0522B01C0532383
:1007C0005083EC012197F1F76695415099F78081AC
:1007D000772311F0832301C0822B80831FBF5C9697
:1007E0008D919C915D970197F1F781E090E0DF9109
:1007F000CF911F91089508952091AB013091AC01E4
:100800002817390781F49091690180916A0198173E
:1008100051F0E0916901F0E0E559FE4F80819927A0
:1008200087FD909508958FEF9FEF08952091AB017C
:100830003091AC012817390771F480916A01209139
:10084000690190E0805C9F4F821B910960E470E039
:100850000E941508089580E090E00895E091AB01B2
:10086000F091AC01E817F90769F4A389B4899C9168
:100870008589809589238C931092AC011092AB01ED
:1008800081E0089580E00895CF93DF93EC018A8D95
:100890009B8D892BF1F08091AB019091AC018C176D
:1008A0009D07B9F0009711F00E942E048E8D8E7F67
:1008B0008E8F10926A0110926901D093AC01C0939F
:1008C000AB01EB89FC8980819D89892B808381E044
:1008D00001C080E0DF91CF9108951F920F920FB673
:1008E0000F9211242F933F934F935F936F937F93B6
:1008F0008F939F93AF93BF93EF93FF93E091AB01DF
:10090000F091AC01309709F451C0868DA685B7856A
:10091000958581FF04C08C91892329F447C08C916F
:10092000892309F043C0A389B4899C918589809566
:1009300089238C93868997890197F1F7208D318DD2
:10094000A685B785758558E040E0C9010197F1F7A4
:10095000842F90E095958795482F6C91672309F037
:100960004068515091F7868D81FD409580916A01D4
:1009700090E001968F73992720916901281749F01B
:10098000A0916A01B0E0A559BE4F4C9380936A01D3
:1009900003C0868D8160868F828D938D0197F1F7DC
:1009A000A389B4898C919589892B8C93FF91EF91C0
:1009B000BF91AF919F918F917F916F915F914F9177
:1009C0003F912F910F900FBE0F901F90189529E027
:1009D00031E0FC01318320830C942E041F93CF93CC
:1009E000DF93EC01162F6E8D6695617081E06827AC
:1009F000812F0E949A0761E0812F0E946107812F59
:100A000090E0FC01E458FF4FE491E88BFC01E057D3
:100A1000FF4FE491F0E0EE0FFF1FE255FF4F85918D
:100A200094919A8B898BDF91CF911F9108951F9399
:100A3000CF93DF93EC01162F60E0812F0E946107B6
:100A40008E8D81FD04C061E0812F0E949A071C8772
:100A5000812F90E0FC01E458FF4FE491ED87FC0109
:100A6000E057FF4FE491F0E0EE0FFF1FEC55FF4F12
:100A7000859194919F878E87DF91CF911F910895E3
:100A8000FF920F931F93CF93DF93EC01F62E522F1B
:100A90001B821A8208EE13E020E030E00C831D83F5
:100AA0002E833F8389E091E0998388831F8A1E8A81
:100AB000198E188E1B8E1A8E1D8E1C8E8E8D8E7F1B
:100AC00050FB81F98E8F642FCE010E94EE046F2DB2
:100AD000CE01DF91CF911F910F91FF900C941705DC
:100AE000CF93DF93EC019A01AB011B8E1A8E198E06
:100AF000188E1F8A1E8A60E079E08DE390E00E94E4
:100B00004B08C9012430310520F0B9016350710947
:100B100002C061E070E07D8F6C8FEC85E63108F0FB
:100B200068C0B901769567956431710518F0635115
:100B3000710902C061E070E07F8B6E8B069718F040
:100B4000C901059702C081E090E0998F888FC901A3
:100B5000880F991F820F931F969587959695879575
:100B60008D30910510F00C9702C081E090E09B8FD2
:100B70008A8F20916800E83050F091E0EE3008F460
:100B800090E081E001C0880F9A95EAF701C084E007
:100B9000822B809368002C85283038F02E3040F06E
:100BA000263148F48CE690E008C08DE690E005C060
:100BB0008BE690E002C080E090E09C8B8B8B28302D
:100BC00030F481E001C0880F2A95EAF70DC0822F2A
:100BD00090E02E3010F4089701C00E9791E001C00C
:100BE000990F8A95EAF7892F8D8B8C8D9D8D0197B2
:100BF000F1F7CE01DF91CF910C9444041F920F9234
:100C00000FB60F9211242F933F938F939F93AF931F
:100C1000BF938091AE019091AF01A091B001B091CE
:100C2000B1013091AD0123E0230F2D3720F401965F
:100C3000A11DB11D05C026E8230F0296A11DB11DFF
:100C40002093AD018093AE019093AF01A093B001CA
:100C5000B093B1018091B2019091B301A091B40120
:100C6000B091B5010196A11DB11D8093B201909381
:100C7000B301A093B401B093B501BF91AF919F911F
:100C80008F913F912F910F900FBE0F901F9018954D
:100C90003FB7F8948091B2019091B301A091B40153
:100CA000B091B50126B5A89B05C02F3F19F001965C
:100CB000A11DB11D3FBF6627782F892F9A2F620F84
:100CC000711D811D911D42E0660F771F881F991FBE
:100CD0004A95D1F70895CF92DF92EF92FF92CF938A
:100CE000DF936B017C010E944806EB01C114D10423
:100CF000E104F10489F00E9408080E9448066C1B78
:100D00007D0B683E734090F381E0C81AD108E1087A
:100D1000F108C851DC4FEACFDF91CF91FF90EF90FF
:100D2000DF90CF9008958230910538F0880F991F99
:100D3000880F991F05970197F1F70895789484B566
:100D4000826084BD84B5816084BD85B5826085BDC7
:100D500085B5816085BDEEE6F0E0808181608083AD
:100D6000E1E8F0E010828081826080838081816090
:100D70008083E0E8F0E0808181608083E1EBF0E057
:100D8000808184608083E0EBF0E0808181608083FB
:100D9000EAE7F0E0808184608083808182608083E4
:100DA0008081816080838081806880831092C1000F
:100DB00008951F93CF93DF93182FEB0161E00E94FA
:100DC0006107209711F460E004C0CF3FD10539F4EA
:100DD00061E0812FDF91CF911F910C949A07E12F51
:100DE000F0E0E859FF4FE491E330F9F048F4E130E6
:100DF000B9F0E230A1F584B5806284BDC8BD34C0CD
:100E0000E730E9F0E83019F1E43049F580918000ED
:100E1000806280938000D0938B00C0938A0024C0AE
:100E200084B5806884BDC7BD1FC080918000806884
:100E300080938000D0938900C093880015C0809172
:100E4000B00080688093B000C093B3000DC0809163
:100E5000B00080628093B000C093B40005C0C03879
:100E6000D1050CF0B5CFAFCFDF91CF911F91089591
:100E7000833081F028F4813099F08230A1F0089518
:100E80008730A9F08830B9F08430D1F480918000A7
:100E90008F7D03C0809180008F77809380000895BC
:100EA00084B58F7702C084B58F7D84BD089580910D
:100EB000B0008F7703C08091B0008F7D8093B00029
:100EC0000895CF93DF9390E0FC01E458FF4F249105
:100ED000FC01E057FF4F8491882349F190E0880F8F
:100EE000991FFC01E854FF4FA591B49182559F4F83
:100EF000FC01C591D4919FB7611108C0F8948C9101
:100F0000209582238C93888182230AC0623051F419
:100F1000F8948C91322F309583238C938881822B87
:100F2000888304C0F8948C91822B8C939FBFDF91AF
:100F3000CF9108950F931F93CF93DF931F92CDB757
:100F4000DEB7282F30E0F901E859FF4F8491F9010D
:100F5000E458FF4F1491F901E057FF4F049100232B
:100F6000C9F0882321F069830E9438076981E02F46
:100F7000F0E0EE0FFF1FE255FF4FA591B4919FB730
:100F8000F8948C91611103C01095812301C0812BCD
:100F90008C939FBF0F90DF91CF911F910F91089578
:100FA00008950E949E060E94D0070E948D00C0E016
:100FB000D0E00E94BE012097E1F30E940000F9CF2B
:100FC000CF92DF92EF92FF920F931F93CF93DF9315
:100FD0007C016A01EB0100E010E00C151D0571F0C9
:100FE0006991D701ED91FC910190F081E02DC7014D
:100FF0000995892B19F00F5F1F4FEFCFC801DF91C3
:10100000CF911F910F91FF90EF90DF90CF900895B7
:101010000895991B79E004C0991F961708F0961B54
:10102000881F7A95C9F78095089597FB072E16F4C7
:10103000009407D077FD09D00E946A0807FC05D00C
:101040003EF4909581959F4F0895709561957F4FDF
:101050000895A1E21A2EAA1BBB1BFD010DC0AA1FF9
:10106000BB1FEE1FFF1FA217B307E407F50720F011
:10107000A21BB30BE40BF50B661F771F881F991F8C
:101080001A9469F760957095809590959B01AC01D5
:10109000BD01CF010895052E97FB1EF400940E9418
:1010A000620857FD07D00E94290807FC03D04EF4C0
:1010B0000C94620850954095309521953F4F4F4FC5
:1010C0005F4F089590958095709561957F4F8F4FF4
:1010D0009F4F0895AA1BBB1B51E107C0AA1FBB1F4E
:1010E000A617B70710F0A61BB70B881F991F5A95B4
:1010F000A9F780959095BC01CD010895EE0FFF1FD3
:101100000590F491E02D099410E0C4ECD0E004C007
:10111000FE010E9480082296C63CD107C9F7F894C8
:02112000FFCFFF
:10112200010000004E00000000A903E00716048839
:0611320003FC03FB0300B7
:00000001FF
