:100000000C94E5000C940D010C940D010C940D0161
:100010000C940D010C940D010C940D010C940D0128
:100020000C940D010C940D010C943E0B0C94D00912
:100030000C940D010C940D010C940D010C940D0108
:100040000C940D010C940F010C940D010C940D01F6
:100050000C940D010C940D010C940D010C94590499
:100060000C940D010C940D010C940D010C940D01D8
:100070000C940D010C940D010C940D010C940D01C8
:100080000C940D010C940D010C940D010C940D01B8
:100090000C940D010C940D010C940D010C940D01A8
:1000A0000C940D010C940D010C940D0168056B0569
:1000B0005A055E0564058C058C058C056F05730576
:1000C00077057D0581058C05870500000002000984
:1000D0000F0000030401000C0000000000000000FD
:1000E0000000000000000000000408020110408031
:1000F000401020408040800802040180402010020F
:10010000011080102040402004040404040304056E
:1001100002020202040302020202060606060606A4
:100120000404020202040400000000250028002B41
:10013000002E00310000000000240027002A002DBE
:10014000003000080B000202020100090400000157
:10015000020200000524001001052401010104240D
:10016000020605240600010705810310004009046A
:100170000100020A00000007050202400000070516
:10018000830240000012010002EF020140412341BE
:100190008000010102030112010002000000404141
:1001A00023418000010102030141726475696E6F91
:1001B000204C4C430041726475696E6F2059756E16
:1001C0000004030904005104F20611241FBECFEFFE
:1001D000DAE0DEBFCDBF11E0A0E0B1E0ECE4F9E190
:1001E00002C005900D92A43AB107D9F722E0A4EA23
:1001F000B1E001C01D92AF37B207E1F711E0CAECE0
:10020000D1E004C02297FE010E94A00CC63CD10799
:10021000C9F70E9410070C94A40C0C9400001F92C4
:100220000F920FB60F9211242F933F934F935F932A
:100230006F937F938F939F93AF93BF93EF93FF93AE
:100240008091A50187FF05C010928500109284005F
:100250001AC02091A501332727FD30958091A40174
:1002600090E0281739077CF48091A501992787FD34
:100270009095FC01EE0FFF1FE80FF91FEA55FE4FA6
:10028000808186FD15C08091A5018F5F8093A501B7
:100290002091A501332727FD30958091A40190E09E
:1002A00028173907BCF48091A5018C305CF112C08D
:1002B0008091A501992787FD9095FC01EE0FFF1F06
:1002C000E80FF91FEA55FE4F808160E08F730E94AE
:1002D000C605D9CF80918400909185000496803422
:1002E0009C4918F480E49CE905C0809184009091B9
:1002F0008500049690938900809388008FEF809307
:10030000A50138C020918400309185008091A5011D
:10031000992787FD9095FC01EE0FFF1FE80FF91F4D
:10032000EA55FE4F81819281820F931F909389003D
:10033000809388008091A501992787FD9095FC0105
:10034000EE0FFF1FE80FF91FEA55FE4F808186FF71
:1003500011C08091A501992787FD9095FC01EE0FB2
:10036000FF1FE80FF91FEA55FE4F808161E08F7390
:100370000E94C605FF91EF91BF91AF919F918F9120
:100380007F916F915F914F913F912F910F900FBE91
:100390000F901F9018952091A4012C30A0F431E00B
:1003A000320F3093A401FC012083822F90E0FC01E6
:1003B000EE0FFF1FE80FF91FEA55FE4F88EB9BE099
:1003C0009283818308952FEFFC0120830895DF92AB
:1003D000EF92FF920F931F93CF93DF93EC01D62EF2
:1003E0007A01890188818C3008F066C061E08D2D2A
:1003F0000E948D058881A82FB0E0FD01EE0FFF1F40
:10040000EA0FFB1FEA55FE4F2D2D2F739081907C34
:10041000922B908360E272E06E197F0977FF02C031
:100420006D5F7F4F7595679575956795698340E614
:1004300059E0401B510B57FF02C04D5F5F4F559570
:100440004795559547954A836CE00E94700C9CE057
:10045000899FB001112420E030E0A901460F571F09
:10046000FA01EE0FFF1FE40FF51FEA55FE4F9081D2
:1004700096FD16C02F5F3F4F2C30310571F781116B
:100480000FC01092800082E080938100109285005E
:1004900010928400B19A80916F00826080936F0007
:1004A000888190E0FC01EE0FFF1FE80FF91FEA556D
:1004B000FE4F8081806480838881DF91CF911F917E
:1004C0000F91FF90EF90DF9008950C94A3040F9389
:1004D0001F93CF93DF93EC01662359F00E94A3048E
:1004E00069837A838B839C83DF91CF911F910F91D6
:1004F00008950E94A30409811A812B813C81601B0D
:10050000710B820B930B623371058105910530F7F6
:1005100063E070E080E090E00E94D204EACF60E007
:100520000C946702CF92DF92EF92FF920F931F938A
:10053000CF93DF9300D000D0CDB7DEB78C017B0125
:10054000FC0172AB61AB8BE1C82ED12CC7012983B2
:100550003A834B835C830E94E30629813A814B8175
:100560005C81811113C0F1E0CF1AD10879F064E603
:1005700070E080E090E029833A834B835C830E94A3
:10058000D2045C814B813A812981E0CFBA01A90173
:10059000F80181A992A90F900F900F900F90DF9111
:1005A000CF911F910F91FF90EF90DF90CF900C941F
:1005B000DD06FC0113AA14AA15AA16AA118212823A
:1005C00013821482411551056105710521F0CB019B
:1005D000BA010C94D20408951F93CF93DF93EC01DA
:1005E000162F67E171E089A99AA90E9439074AE0AC
:1005F00050E0612F89A99AA90E94A1076EE171E0DC
:1006000089A99AA90E94390762E370E080E090E02E
:10061000DF91CF911F910C94D2041F93CF93DF935E
:10062000EC01162F8D81882389F189A99AA9DC0113
:10063000ED91FC910480F581E02D0995892BA9F3BA
:1006400007C02637310519F12835310509F41D8217
:1006500089A99AA9DC01ED91FC910480F581E02D36
:1006600009951816190694F489A99AA9DC01ED9147
:10067000FC910680F781E02D09959C0133272336F4
:100680003105F9F6612FCE010E94EC0283E6DF917D
:10069000CF911F9108950F931F93CF93DF931F92D4
:1006A000CDB7DEB78C01662349F081E0F801858380
:1006B00060E0C80149830E940D034981F801458328
:1006C0000F90DF91CF911F910F91089540ED57E06A
:1006D00060E070E08AEC91E00E94D90220E032EC08
:1006E00041E050E068E172E08AEC91E00E94920201
:1006F0008AEC91E00E948F026FE671E08091FB012D
:100700009091FC010E9439076AE070E080E090E07F
:100710000E94D20441E060E08AEC91E00E944B0329
:1007200020E639E048EE53E069E070E084E092E0D2
:100730000E94E70120E639E048EE53E06AE070E00D
:1007400081E092E00E94E70161E087E00E948D0570
:1007500061E088E00E948D0561E08EE00E948D05D9
:1007600061E08FE00E948D0561E08BE00C948D05C7
:10077000CF92DF92EF92FF920F931F930E94A304F8
:10078000672B682B692B41F40E94A304623071052A
:100790008105910508F47EC08AEC91E00E94650213
:1007A00060930702709308028093090290930A02F3
:1007B00000910B0210910C0220910D0230910E025B
:1007C000601771078207930740F460930B027093E0
:1007D0000C0280930D0290930E0200910B02109177
:1007E0000C0220910D0230910E026B017C01C01AA7
:1007F000D10AE20AF30A970186010A3F1105210591
:10080000310508F447C060930B0270930C0280938B
:100810000D0290930E028AEC91E00E948F0261E833
:1008200071E08091FB019091FC010E94390769E819
:1008300071E08091FB019091FC010E9439070E94B8
:10084000A304AB01BC012AE030E08091FB01909150
:10085000FC010E9494076BE871E08091FB0190918C
:10086000FC010E94390765E070E080E090E00E94A2
:10087000D2046AE070E080E090E00E94D20461E07F
:100880008AEC91E01F910F91FF90EF90DF90CF9055
:100890000C940D031F910F91FF90EF90DF90CF907C
:1008A000089584E092E00E94CB0181E092E00C94F4
:1008B000CB011F920F920FB60F9211242F933F93EB
:1008C0008F939F93AF93BF938091100290911102E9
:1008D000A0911202B091130230910F0223E0230F76
:1008E0002D3720F40196A11DB11D05C026E8230F68
:1008F0000296A11DB11D20930F02809310029093C8
:100900001102A0931202B0931302809114029091ED
:100910001502A0911602B09117020196A11DB11DFA
:100920008093140290931502A0931602B0931702BD
:10093000BF91AF919F918F913F912F910F900FBEDB
:100940000F901F9018952FB7F89460911002709136
:10095000110280911202909113022FBF08953FB7A8
:10096000F8948091140290911502A0911602B09112
:10097000170226B5A89B05C02F3F19F00196A11DAF
:10098000B11D3FBF6627782F892F9A2F620F711DE7
:10099000811D911D42E0660F771F881F991F4A95A0
:1009A000D1F70895CF92DF92EF92FF92CF93DF932A
:1009B0006B017C010E94AF04EB01C114D104E1047E
:1009C000F10489F00E94D40B0E94AF046C1B7D0BD4
:1009D000683E734090F381E0C81AD108E108F1083D
:1009E000C851DC4FEACFDF91CF91FF90EF90DF90BD
:1009F000CF900895789484B5826084BD84B5816079
:100A000084BD85B5826085BD85B5816085BDEEE616
:100A1000F0E0808181608083E1E8F0E010828081F5
:100A200082608083808181608083E0E8F0E0808163
:100A300081608083E1E9F0E0808182608083808151
:100A400081608083E0E9F0E0808181608083E1EC77
:100A5000F0E08081846080838081826080838081F7
:100A600081608083E3ECF0E0808181608083E0EC52
:100A7000F0E0808182608083E2ECF0E08081816040
:100A80008083EAE7F0E080818460808380818260F7
:100A900080838081816080838081806880830895E5
:100AA00090E0FC013197EF30F105B0F5EA5AFF4FC5
:100AB0000C949E0C809180008F7703C08091800001
:100AC0008F7D80938000089580918000877FF9CF8B
:100AD00084B58F7702C084B58F7D84BD08958091E1
:100AE00090008F7707C0809190008F7D03C0809128
:100AF0009000877F8093900008958091C0008F7749
:100B000003C08091C0008F7D8093C00008958091C4
:100B1000C200877F8093C2000895CF93DF9390E057
:100B2000FC01E751FF4F2491FC01E85FFE4F8491E7
:100B3000882349F190E0880F991FFC01EB5CFE4F80
:100B4000A591B491895D9E4FFC01C591D4919FB749
:100B5000611108C0F8948C91209582238C93888130
:100B600082230AC0623051F4F8948C91322F309570
:100B700083238C938881822B888304C0F8948C9182
:100B8000822B8C939FBFDF91CF9108950F931F937A
:100B9000CF93DF931F92CDB7DEB7282F30E0F90156
:100BA000E653FF4F8491F901E751FF4F1491F9018A
:100BB000E85FFE4F04910023C9F0882321F0698388
:100BC0000E9450056981E02FF0E0EE0FFF1FE95D04
:100BD000FE4FA591B4919FB7F8948C91611103C019
:100BE0001095812301C0812B8C939FBF0F90DF91C3
:100BF000CF911F910F910895CF93DF931F92CDB79F
:100C0000DEB76983DC01ED91FC910280F381E02D78
:100C100041E050E0BE016F5F7F4F09950F90DF917B
:100C2000CF910895CF93DF93EC018C859D8597FF3D
:100C300005C082E00E94B9089D878C878C859D85C0
:100C4000DF91CF91089583E00C94340BFC018485EF
:100C5000958597FD06C082E00E94610890E00196AC
:100C6000089582E00E94610890E00895FC01848567
:100C7000958597FD05C02FEF3FEF358724870895B1
:100C800082E00C94B908CF93DF93EC0180910F01BF
:100C9000882331F083E00E94EA081816190634F020
:100CA00081E090E09B838A8380E090E0DF91CF91A8
:100CB0000895FC0120812E5F208342E450E063E42C
:100CC00071E080E80C948509FC0121818081813AE2
:100CD00059F4213209F05CC047E050E068E071E06F
:100CE00080E00E94850967C0813209F051C023323B
:100CF00089F4838190E0982F88273281832BA0E0AC
:100D0000B0E08093040190930501A0930601B09395
:100D100007010FC0203239F467E070E088E091E00D
:100D20000E94B6090AC0223221F4828180930F0109
:100D300004C02D7F203209F03EC0809108019091BF
:100D40000901A0910A01B0910B01803B9440A105DB
:100D5000B10501F580910F0180FD1CC08091000854
:100D6000909101089093FF0A8093FE0A87E797E726
:100D700090930108809300082BE088E190E00FB683
:100D8000F894A895809360000FBE2093600013C074
:100D900080E0089588E10FB6F89480936000109287
:100DA00060000FBEA8958091FE0A9091FF0A909373
:100DB00001088093000881E008952FEF3FEFFC01C8
:100DC000358724870895CF93C0910F016AE070E0C2
:100DD00080E090E00E94D20481E0C11101C080E077
:100DE000CF91089510921B0210921A0288EE93E0A0
:100DF000A0E0B0E080931C0290931D02A0931E021D
:100E0000B0931F0288E991E0909319028093180231
:100E10008FEF9FEF90932502809324020895089509
:100E20000E94FA040E940F0788E692E00E94C10B1C
:100E30000E946603C0E0D0E00E94B8032097E1F36F
:100E40000E940000F9CF6115710581F0DB010D9062
:100E50000020E9F7AD0141505109461B570BDC0159
:100E6000ED91FC910280F381E02D099480E090E007
:100E700008950C9423078F929F92AF92BF92CF92C6
:100E8000DF92EF92FF920F931F93CF93DF93CDB733
:100E9000DEB7A1970FB6F894DEBF0FBECDBF7C01C1
:100EA000C42EE52FCB01D22E19A221E02D1510F072
:100EB0002AE0D22E8E010F5D1F4F8D2C912CA12C7C
:100EC000B12C6C2D7E2FA50194010E947C0C8C2DE1
:100ED000D29E80191124015011098A3014F4805DCA
:100EE00001C0895CF8018083211531054105510558
:100EF00021F0C22EE32FCA01E4CFB801C7010E943E
:100F00002307A1960FB6F894DEBF0FBECDBFDF91C9
:100F1000CF911F910F91FF90EF90DF90CF90BF90F6
:100F2000AF909F908F9008952115310541F4DC0119
:100F3000ED91FC910190F081E02D642F09940C94C7
:100F40003B079A01462F50E060E070E00C94940754
:100F5000615030F02091F100FC0120830196F8CF20
:100F6000289884E680937102089540916C02509114
:100F70006D0220916A0230916B0242175307B4F45C
:100F80009091E8009570E1F39091E80092FD19C00E
:100F90008093F10080916C0290916D0201968F73A5
:100FA0009927892B19F48EEF8093E80080916C02C9
:100FB00090916D02019690936D0280936C0281E096
:100FC000089580E00895CF92DF92EF92FF920F9301
:100FD0001F93CF93DF931F92CDB7DEB7082F162F45
:100FE000F42E862F880F8E5F99830E94B50783E0C9
:100FF0000E94B507E02EC02E9981D92E8C2D8E1916
:10100000811798F4F601F7FE02C0849101C0808137
:101010000E94B507082F80E00E94B5078023FFEFEC
:10102000CF1ADF0A8111EACF01C081E00F90DF9172
:10103000CF911F910F91FF90EF90DF90CF90089587
:101040008091D70081608093D70080EA8093D80098
:1010500089B5806189BD89B5826089BD09B400FE0A
:10106000FDCF61E070E080E090E00E94D2048091CA
:10107000D8008F7C80618093D8008091E000807FD1
:101080008093E0000895CF93DF931F92CDB7DEB732
:101090001982CE0101960E9459060E945C0CBE0185
:1010A0006F5F7F4F0E94D50B89810F90DF91CF91A9
:1010B00008952FB7FC012083F89467706093E900CE
:1010C0000895CF93DF931F92CDB7DEB7682FCE017F
:1010D00001960E9459088091F20099819FBF0F905C
:1010E000DF91CF910895FF920F931F93CF93DF93DA
:1010F00000D0CDB7DEB7F62E8A0190917002992309
:1011000011F057FF03C08FEF9FEF2BC0682FCE0168
:1011100001967A830E9459088091F20090E0A8011C
:101120007A81801791070CF4AC01EF2DF72FF40EA4
:1011300084E6FE1639F02898809371029091F100B0
:101140009193F7CF4115510521F08091F20088234A
:1011500021F089818FBFCA0104C08BE68093E8002B
:10116000F8CF0F900F90DF91CF911F910F91FF90CB
:101170000895CF93DF931F92CDB7DEB741E050E0E3
:10118000BE016F5F7F4F0E947308019719F4898138
:1011900090E002C08FEF9FEF0F90DF91CF91089505
:1011A000CF93DF931F92CDB7DEB7682FCE010196A4
:1011B0000E9459089091E800892F807295FF04C021
:1011C0009091F20080E4891B99819FBF0F90DF917D
:1011D000CF9108956F927F928F929F92AF92BF921C
:1011E000CF92DF92EF92FF920F931F93CF93DF93F3
:1011F0001F92CDB7DEB7782E7B01C42EB52E80911D
:101200007002882369F0042F152F8AEFD82E872DBE
:101210008072982E9AE3A92E872D8074882E11C093
:101220008FEF9FEF57C0872D0E94D008682E811145
:101230000CC0DA94A9F361E070E080E090E00E94D5
:10124000D2040115110579F73BC0282F30E00217B1
:1012500013070CF4602E672DCE0101960E945908E9
:101260008091E80085FF29C0262D30E0021B130B7A
:10127000992039F06A948FEF6816B1F01092F1005E
:10128000F9CFF701862D77FE07C0815058F0949171
:101290009093F1003196F9CF815020F09191909385
:1012A000F100FACFE20EF31E8091E80085FF0FC037
:1012B0000115110511F481100AC089818FBFC1CFBA
:1012C0005D9884E6809372028C2D9B2D03C0A092C2
:1012D000E800F3CF0F90DF91CF911F910F91FF9016
:1012E000EF90DF90CF90BF90AF909F908F907F90C6
:1012F0006F9008951092E90010926D0210926C02A6
:1013000090936B0280936A020895CF92DF92FF92CE
:101310000F931F93CF93DF9300D0CDB7DEB7F82E96
:101320008A016B0101151105B1F0F601F7FE02C04B
:10133000849101C0808149835A830E94B50701507E
:101340001109FFEFCF1ADF0A49815A818111EACFD3
:101350008FEF9FEF01C0CA010F900F90DF91CF91E7
:101360001F910F91FF90DF90CF9008951F93CF931F
:10137000DF931F92CDB7DEB7162F2091E80022FF32
:10138000FCCF612F79830E94A8078BEF8093E80040
:10139000812F7981972F0F90DF91CF911F91089521
:1013A0001F920F920FB60F921124DF92EF92FF92CD
:1013B0000F931F932F933F934F935F936F937F935D
:1013C0008F939F93AF93BF93EF93FF93CF93DF934D
:1013D000CDB7DEB76C97DEBFCDBF1092E90080912C
:1013E000E80083FF23C168E0CE0145960E94A8076C
:1013F00082EF8093E8003D8937FF05C08091E800C7
:1014000080FFFCCF03C08EEF8093E800832F8076AF
:1014100009F0F0C02E894F89D88C21110CC03038CA
:1014200029F480916F028093F10002C01092F100C4
:101430001092F100F4C0842F90E09D29213049F4EE
:101440003111EDC0019709F0EAC080916F028D7FE4
:101450000AC0233059F43111E2C0019709F0DFC00E
:1014600080916F02826080936F02D9C0253041F471
:101470008091E80080FFFCCF40684093E300CFC03C
:10148000263009F08DC0EB8CFC8C22E0D2122CC0EF
:1014900080E090E00E947A090E94430899E08E0162
:1014A0000F5F1F4FF801292F11922A95E9F79983B1
:1014B000DA8291E09E8390EA98879AEF998720914B
:1014C0006C0230916D02275F3F4F3C832B838D83ED
:1014D000C7010E947A0949E050E0B80180E00E940B
:1014E00085090E9443089BC0C7010E947A090E9497
:1014F0005C0CBE016B5E7F4F0E94FE0B009719F0E3
:101500000CF08DC090C081E0D8120EC08B8D9C8DE8
:10151000089719F481E08093690280916902811132
:101520002FC067E971E031C0E3E0DE127CC08F8933
:10153000882349F1823029F440E86BE085EB91E0A3
:101540001CC0813029F440E86BE089EA91E015C0C5
:10155000833009F068C00E945C0C8E010F5F1F4F42
:10156000B8010E941D0CF80101900020E9F73197A5
:10157000E01BF10B40E06E2FC8010E94E3074DC055
:1015800065E871E002C061EC71E06115710509F474
:101590004AC0FB01449150E080E80E9485093FC0A9
:1015A000273009F440C0283021F481E08093F10015
:1015B00036C02930A1F53370B1F5E1E1F1E081E009
:1015C00021E036E39081992361F08093E900209334
:1015D000EB0091919093EC003093ED008F5F87309A
:1015E00089F78EE78093EA001092EA008F89809352
:1015F000700215C08B8D9C8D0E947A09898D811196
:1016000005C0CE0145960E94640607C00E945C0C8E
:10161000BE016B5E7F4F0E943C0C882321F08EEF51
:101620008093E80003C081E28093EB006C960FB6D4
:10163000F894DEBF0FBECDBFDF91CF91FF91EF9148
:10164000BF91AF919F918F917F916F915F914F91DA
:101650003F912F911F910F91FF90EF90DF900F908E
:101660000FBE0F901F9018958093E9008091F200B3
:10167000882319F08AE38093E80008951F920F925F
:101680000FB60F9211242F933F934F935F936F9355
:101690007F938F939F93AF93BF93CF93EF93FF93DA
:1016A000C091E1008091E100837F8093E10080930D
:1016B000E100C3FF0FC01092E90081E08093EB00CE
:1016C0001092EC0082E38093ED001092700288E0AB
:1016D0008093F000C2FF19C083E00E94340B809118
:1016E0007202882339F080917202815080937202D5
:1016F000882389F180917102882339F080917102E9
:10170000815080937102882341F1C4FF10C0809101
:10171000E2008E7E81608093E2008091E1008F7E06
:101720008093E10080916E028E7E806111C0C0FFC7
:1017300016C08091E2008E7E80618093E2008091ED
:10174000E1008E7E8093E10080916E028E7E81604A
:1017500080936E0204C05D9ACDCF289AD6CFFF91B8
:10176000EF91CF91BF91AF919F918F917F916F91A9
:101770005F914F913F912F910F900FBE0F901F904F
:1017800018951092700210926F0210926E020E94D1
:101790002008E1EEF0E080818E7E80838DE08093F2
:1017A000E200559A209A08950895EF92FF920F93C0
:1017B0001F93CF93DF937B01FC01C281D38100E0B3
:1017C00010E0209781F0E881F9810280F381E02D1B
:1017D000B701CE01099597FD08C0080F191F0884AD
:1017E000D985C02DEECFC80102C08FEF9FEFDF91EA
:1017F000CF911F910F91FF90EF9008950F931F933A
:10180000CF93DF938B01FC01C281D381209771F0CC
:10181000E881F9810480F581E02DB801CE010995B8
:10182000009731F40884D985C02DF0CF80E090E096
:10183000DF91CF911F910F9108950F931F93CF9335
:10184000DF938B01FC01C281D381209771F0E88185
:10185000F9810680F781E02DB801CE010995080FC6
:10186000111D0884D985C02DF0CFF8011082DF91B9
:10187000CF911F910F9108950F931F93CF93DF93F3
:101880008B01FC01C281D381209771F0E881F9813D
:101890000190F081E02DB801CE010995811106C0BB
:1018A0000884D985C02DF0CF80E001C081E0DF91B0
:1018B000CF911F910F9108958091770281110DC0F2
:1018C00082E08093730284E0809374021092760227
:1018D0001092750281E08093770283E792E0089589
:1018E000991B79E004C0991F961708F0961B881F72
:1018F0007A95C9F780950895A1E21A2EAA1BBB1B01
:10190000FD010DC0AA1FBB1FEE1FFF1FA217B307CB
:10191000E407F50720F0A21BB30BE40BF50B661FE1
:10192000771F881F991F1A9469F7609570958095A5
:1019300090959B01AC01BD01CF010895EE0FFF1FF3
:0C1940000590F491E02D0994F894FFCF7D
:10194C0001000000FFFFFFFF00E1000000000000AD
:10195C0000C18081000000564D4450435F005F562B
:10196C004D4450430D0A004572726F723A20417417
:10197C0074656D707420746F2073657420612072AF
:10198C006561642D6F6E6C79207661726961626C31
:10199C0065206F7220646174612074797065206EAB
:1019AC006F7420737570706F727465640D0A0056D5
:1019BC004D4450565F317C315F564D4450560D0AA4
:1019CC0000564D4450455F31007C005F564D4450ED
:1019DC00450D0A0000000000FC05430626063606ED
:0419EC0012062306B6
:00000001FF
